{
  "_format": "hh-sol-artifact-1",
  "contractName": "LSP7Mint",
  "sourceName": "contracts/LSP7Mintable.sol",
  "abi": [
    {
      "inputs": [
        {
          "internalType": "string",
          "name": "name",
          "type": "string"
        },
        {
          "internalType": "string",
          "name": "symbol",
          "type": "string"
        },
        {
          "internalType": "address",
          "name": "contractOwner",
          "type": "address"
        },
        {
          "internalType": "uint256",
          "name": "lsp4TokenType",
          "type": "uint256"
        },
        {
          "internalType": "bool",
          "name": "isNonDivisible",
          "type": "bool"
        }
      ],
      "stateMutability": "nonpayable",
      "type": "constructor"
    },
    {
      "inputs": [],
      "name": "ERC725Y_DataKeysValuesEmptyArray",
      "type": "error"
    },
    {
      "inputs": [],
      "name": "ERC725Y_DataKeysValuesLengthMismatch",
      "type": "error"
    },
    {
      "inputs": [],
      "name": "ERC725Y_MsgValueDisallowed",
      "type": "error"
    },
    {
      "inputs": [
        {
          "internalType": "bytes",
          "name": "storedData",
          "type": "bytes"
        }
      ],
      "name": "InvalidExtensionAddress",
      "type": "error"
    },
    {
      "inputs": [
        {
          "internalType": "bytes",
          "name": "data",
          "type": "bytes"
        }
      ],
      "name": "InvalidFunctionSelector",
      "type": "error"
    },
    {
      "inputs": [],
      "name": "LSP4TokenNameNotEditable",
      "type": "error"
    },
    {
      "inputs": [],
      "name": "LSP4TokenSymbolNotEditable",
      "type": "error"
    },
    {
      "inputs": [],
      "name": "LSP4TokenTypeNotEditable",
      "type": "error"
    },
    {
      "inputs": [
        {
          "internalType": "address",
          "name": "tokenOwner",
          "type": "address"
        },
        {
          "internalType": "uint256",
          "name": "authorizedAmount",
          "type": "uint256"
        },
        {
          "internalType": "address",
          "name": "operator",
          "type": "address"
        },
        {
          "internalType": "uint256",
          "name": "amount",
          "type": "uint256"
        }
      ],
      "name": "LSP7AmountExceedsAuthorizedAmount",
      "type": "error"
    },
    {
      "inputs": [
        {
          "internalType": "uint256",
          "name": "balance",
          "type": "uint256"
        },
        {
          "internalType": "address",
          "name": "tokenOwner",
          "type": "address"
        },
        {
          "internalType": "uint256",
          "name": "amount",
          "type": "uint256"
        }
      ],
      "name": "LSP7AmountExceedsBalance",
      "type": "error"
    },
    {
      "inputs": [
        {
          "internalType": "uint256",
          "name": "callIndex",
          "type": "uint256"
        }
      ],
      "name": "LSP7BatchCallFailed",
      "type": "error"
    },
    {
      "inputs": [],
      "name": "LSP7CannotSendWithAddressZero",
      "type": "error"
    },
    {
      "inputs": [],
      "name": "LSP7CannotUseAddressZeroAsOperator",
      "type": "error"
    },
    {
      "inputs": [
        {
          "internalType": "address",
          "name": "caller",
          "type": "address"
        },
        {
          "internalType": "address",
          "name": "tokenOwner",
          "type": "address"
        },
        {
          "internalType": "address",
          "name": "operator",
          "type": "address"
        }
      ],
      "name": "LSP7DecreaseAllowanceNotAuthorized",
      "type": "error"
    },
    {
      "inputs": [],
      "name": "LSP7DecreasedAllowanceBelowZero",
      "type": "error"
    },
    {
      "inputs": [],
      "name": "LSP7InvalidTransferBatch",
      "type": "error"
    },
    {
      "inputs": [
        {
          "internalType": "address",
          "name": "tokenReceiver",
          "type": "address"
        }
      ],
      "name": "LSP7NotifyTokenReceiverContractMissingLSP1Interface",
      "type": "error"
    },
    {
      "inputs": [
        {
          "internalType": "address",
          "name": "tokenReceiver",
          "type": "address"
        }
      ],
      "name": "LSP7NotifyTokenReceiverIsEOA",
      "type": "error"
    },
    {
      "inputs": [
        {
          "internalType": "address",
          "name": "caller",
          "type": "address"
        },
        {
          "internalType": "address",
          "name": "tokenOwner",
          "type": "address"
        },
        {
          "internalType": "address",
          "name": "operator",
          "type": "address"
        }
      ],
      "name": "LSP7RevokeOperatorNotAuthorized",
      "type": "error"
    },
    {
      "inputs": [],
      "name": "LSP7TokenContractCannotHoldValue",
      "type": "error"
    },
    {
      "inputs": [],
      "name": "LSP7TokenOwnerCannotBeOperator",
      "type": "error"
    },
    {
      "inputs": [
        {
          "internalType": "bytes4",
          "name": "functionSelector",
          "type": "bytes4"
        }
      ],
      "name": "NoExtensionFoundForFunctionSelector",
      "type": "error"
    },
    {
      "inputs": [
        {
          "internalType": "address",
          "name": "operator",
          "type": "address"
        }
      ],
      "name": "OperatorAllowanceCannotBeIncreasedFromZero",
      "type": "error"
    },
    {
      "inputs": [
        {
          "internalType": "address",
          "name": "callerAddress",
          "type": "address"
        }
      ],
      "name": "OwnableCallerNotTheOwner",
      "type": "error"
    },
    {
      "inputs": [],
      "name": "OwnableCannotSetZeroAddressAsOwner",
      "type": "error"
    },
    {
      "anonymous": false,
      "inputs": [
        {
          "indexed": true,
          "internalType": "bytes32",
          "name": "dataKey",
          "type": "bytes32"
        },
        {
          "indexed": false,
          "internalType": "bytes",
          "name": "dataValue",
          "type": "bytes"
        }
      ],
      "name": "DataChanged",
      "type": "event"
    },
    {
      "anonymous": false,
      "inputs": [
        {
          "indexed": true,
          "internalType": "address",
          "name": "operator",
          "type": "address"
        },
        {
          "indexed": true,
          "internalType": "address",
          "name": "tokenOwner",
          "type": "address"
        },
        {
          "indexed": true,
          "internalType": "uint256",
          "name": "amount",
          "type": "uint256"
        },
        {
          "indexed": false,
          "internalType": "bytes",
          "name": "operatorNotificationData",
          "type": "bytes"
        }
      ],
      "name": "OperatorAuthorizationChanged",
      "type": "event"
    },
    {
      "anonymous": false,
      "inputs": [
        {
          "indexed": true,
          "internalType": "address",
          "name": "operator",
          "type": "address"
        },
        {
          "indexed": true,
          "internalType": "address",
          "name": "tokenOwner",
          "type": "address"
        },
        {
          "indexed": true,
          "internalType": "bool",
          "name": "notified",
          "type": "bool"
        },
        {
          "indexed": false,
          "internalType": "bytes",
          "name": "operatorNotificationData",
          "type": "bytes"
        }
      ],
      "name": "OperatorRevoked",
      "type": "event"
    },
    {
      "anonymous": false,
      "inputs": [
        {
          "indexed": true,
          "internalType": "address",
          "name": "previousOwner",
          "type": "address"
        },
        {
          "indexed": true,
          "internalType": "address",
          "name": "newOwner",
          "type": "address"
        }
      ],
      "name": "OwnershipTransferred",
      "type": "event"
    },
    {
      "anonymous": false,
      "inputs": [
        {
          "indexed": true,
          "internalType": "address",
          "name": "operator",
          "type": "address"
        },
        {
          "indexed": true,
          "internalType": "address",
          "name": "from",
          "type": "address"
        },
        {
          "indexed": true,
          "internalType": "address",
          "name": "to",
          "type": "address"
        },
        {
          "indexed": false,
          "internalType": "uint256",
          "name": "amount",
          "type": "uint256"
        },
        {
          "indexed": false,
          "internalType": "bool",
          "name": "force",
          "type": "bool"
        },
        {
          "indexed": false,
          "internalType": "bytes",
          "name": "data",
          "type": "bytes"
        }
      ],
      "name": "Transfer",
      "type": "event"
    },
    {
      "stateMutability": "payable",
      "type": "fallback"
    },
    {
      "inputs": [],
      "name": "allCanMint",
      "outputs": [],
      "stateMutability": "nonpayable",
      "type": "function"
    },
    {
      "inputs": [
        {
          "internalType": "address",
          "name": "operator",
          "type": "address"
        },
        {
          "internalType": "uint256",
          "name": "amount",
          "type": "uint256"
        },
        {
          "internalType": "bytes",
          "name": "operatorNotificationData",
          "type": "bytes"
        }
      ],
      "name": "authorizeOperator",
      "outputs": [],
      "stateMutability": "nonpayable",
      "type": "function"
    },
    {
      "inputs": [
        {
          "internalType": "address",
          "name": "operator",
          "type": "address"
        },
        {
          "internalType": "address",
          "name": "tokenOwner",
          "type": "address"
        }
      ],
      "name": "authorizedAmountFor",
      "outputs": [
        {
          "internalType": "uint256",
          "name": "",
          "type": "uint256"
        }
      ],
      "stateMutability": "view",
      "type": "function"
    },
    {
      "inputs": [
        {
          "internalType": "address",
          "name": "tokenOwner",
          "type": "address"
        }
      ],
      "name": "balanceOf",
      "outputs": [
        {
          "internalType": "uint256",
          "name": "",
          "type": "uint256"
        }
      ],
      "stateMutability": "view",
      "type": "function"
    },
    {
      "inputs": [
        {
          "internalType": "bytes[]",
          "name": "data",
          "type": "bytes[]"
        }
      ],
      "name": "batchCalls",
      "outputs": [
        {
          "internalType": "bytes[]",
          "name": "results",
          "type": "bytes[]"
        }
      ],
      "stateMutability": "nonpayable",
      "type": "function"
    },
    {
      "inputs": [
        {
          "internalType": "address",
          "name": "from",
          "type": "address"
        },
        {
          "internalType": "uint256",
          "name": "amount",
          "type": "uint256"
        },
        {
          "internalType": "bytes",
          "name": "data",
          "type": "bytes"
        }
      ],
      "name": "burn",
      "outputs": [],
      "stateMutability": "nonpayable",
      "type": "function"
    },
    {
      "inputs": [],
      "name": "decimals",
      "outputs": [
        {
          "internalType": "uint8",
          "name": "",
          "type": "uint8"
        }
      ],
      "stateMutability": "view",
      "type": "function"
    },
    {
      "inputs": [
        {
          "internalType": "address",
          "name": "operator",
          "type": "address"
        },
        {
          "internalType": "address",
          "name": "tokenOwner",
          "type": "address"
        },
        {
          "internalType": "uint256",
          "name": "subtractedAmount",
          "type": "uint256"
        },
        {
          "internalType": "bytes",
          "name": "operatorNotificationData",
          "type": "bytes"
        }
      ],
      "name": "decreaseAllowance",
      "outputs": [],
      "stateMutability": "nonpayable",
      "type": "function"
    },
    {
      "inputs": [
        {
          "internalType": "bytes32",
          "name": "dataKey",
          "type": "bytes32"
        }
      ],
      "name": "getData",
      "outputs": [
        {
          "internalType": "bytes",
          "name": "dataValue",
          "type": "bytes"
        }
      ],
      "stateMutability": "view",
      "type": "function"
    },
    {
      "inputs": [
        {
          "internalType": "bytes32[]",
          "name": "dataKeys",
          "type": "bytes32[]"
        }
      ],
      "name": "getDataBatch",
      "outputs": [
        {
          "internalType": "bytes[]",
          "name": "dataValues",
          "type": "bytes[]"
        }
      ],
      "stateMutability": "view",
      "type": "function"
    },
    {
      "inputs": [
        {
          "internalType": "address",
          "name": "tokenOwner",
          "type": "address"
        }
      ],
      "name": "getOperatorsOf",
      "outputs": [
        {
          "internalType": "address[]",
          "name": "",
          "type": "address[]"
        }
      ],
      "stateMutability": "view",
      "type": "function"
    },
    {
      "inputs": [
        {
          "internalType": "address",
          "name": "operator",
          "type": "address"
        },
        {
          "internalType": "uint256",
          "name": "addedAmount",
          "type": "uint256"
        },
        {
          "internalType": "bytes",
          "name": "operatorNotificationData",
          "type": "bytes"
        }
      ],
      "name": "increaseAllowance",
      "outputs": [],
      "stateMutability": "nonpayable",
      "type": "function"
    },
    {
      "inputs": [
        {
          "internalType": "address",
          "name": "to",
          "type": "address"
        },
        {
          "internalType": "uint256",
          "name": "amount",
          "type": "uint256"
        },
        {
          "internalType": "bool",
          "name": "force",
          "type": "bool"
        },
        {
          "internalType": "bytes",
          "name": "data",
          "type": "bytes"
        }
      ],
      "name": "mint",
      "outputs": [],
      "stateMutability": "nonpayable",
      "type": "function"
    },
    {
      "inputs": [],
      "name": "owner",
      "outputs": [
        {
          "internalType": "address",
          "name": "",
          "type": "address"
        }
      ],
      "stateMutability": "view",
      "type": "function"
    },
    {
      "inputs": [],
      "name": "renounceOwnership",
      "outputs": [],
      "stateMutability": "nonpayable",
      "type": "function"
    },
    {
      "inputs": [
        {
          "internalType": "address",
          "name": "operator",
          "type": "address"
        },
        {
          "internalType": "address",
          "name": "tokenOwner",
          "type": "address"
        },
        {
          "internalType": "bool",
          "name": "notify",
          "type": "bool"
        },
        {
          "internalType": "bytes",
          "name": "operatorNotificationData",
          "type": "bytes"
        }
      ],
      "name": "revokeOperator",
      "outputs": [],
      "stateMutability": "nonpayable",
      "type": "function"
    },
    {
      "inputs": [
        {
          "internalType": "bytes32",
          "name": "dataKey",
          "type": "bytes32"
        },
        {
          "internalType": "bytes",
          "name": "dataValue",
          "type": "bytes"
        }
      ],
      "name": "setData",
      "outputs": [],
      "stateMutability": "payable",
      "type": "function"
    },
    {
      "inputs": [
        {
          "internalType": "bytes32[]",
          "name": "dataKeys",
          "type": "bytes32[]"
        },
        {
          "internalType": "bytes[]",
          "name": "dataValues",
          "type": "bytes[]"
        }
      ],
      "name": "setDataBatch",
      "outputs": [],
      "stateMutability": "payable",
      "type": "function"
    },
    {
      "inputs": [
        {
          "internalType": "bytes4",
          "name": "interfaceId",
          "type": "bytes4"
        }
      ],
      "name": "supportsInterface",
      "outputs": [
        {
          "internalType": "bool",
          "name": "",
          "type": "bool"
        }
      ],
      "stateMutability": "view",
      "type": "function"
    },
    {
      "inputs": [],
      "name": "totalSupply",
      "outputs": [
        {
          "internalType": "uint256",
          "name": "",
          "type": "uint256"
        }
      ],
      "stateMutability": "view",
      "type": "function"
    },
    {
      "inputs": [
        {
          "internalType": "address",
          "name": "from",
          "type": "address"
        },
        {
          "internalType": "address",
          "name": "to",
          "type": "address"
        },
        {
          "internalType": "uint256",
          "name": "amount",
          "type": "uint256"
        },
        {
          "internalType": "bool",
          "name": "force",
          "type": "bool"
        },
        {
          "internalType": "bytes",
          "name": "data",
          "type": "bytes"
        }
      ],
      "name": "transfer",
      "outputs": [],
      "stateMutability": "nonpayable",
      "type": "function"
    },
    {
      "inputs": [
        {
          "internalType": "address[]",
          "name": "from",
          "type": "address[]"
        },
        {
          "internalType": "address[]",
          "name": "to",
          "type": "address[]"
        },
        {
          "internalType": "uint256[]",
          "name": "amount",
          "type": "uint256[]"
        },
        {
          "internalType": "bool[]",
          "name": "force",
          "type": "bool[]"
        },
        {
          "internalType": "bytes[]",
          "name": "data",
          "type": "bytes[]"
        }
      ],
      "name": "transferBatch",
      "outputs": [],
      "stateMutability": "nonpayable",
      "type": "function"
    },
    {
      "inputs": [
        {
          "internalType": "address",
          "name": "newOwner",
          "type": "address"
        }
      ],
      "name": "transferOwnership",
      "outputs": [],
      "stateMutability": "nonpayable",
      "type": "function"
    },
    {
      "stateMutability": "payable",
      "type": "receive"
    }
  ],
  "bytecode": "0x60806040523480156200001157600080fd5b506040516200349f3803806200349f833981016040819052620000349162000669565b8484848484848484848484848484816001600160a01b0381166200006b576040516306b620db60e21b815260040160405180910390fd5b6200007681620001b5565b506040805180820190915260048152632936598960e21b6020820152620000bf907feafec4d89fa9619884b60000a4d96624a38f7ac2d8d9a604ecf07c12c77e480c9062000223565b620000eb7fdeba1e292f8ba88238e10ab3c7f88bd4be4fac56cad5194b6ecceaf653468af18562000223565b620001177f2f0a68ab07768e01943a599e73362a0e17a63a72e94dd2e384d2c1d4db9327568462000223565b604080516020810183905262000160917fe0261fa95db2eb3b5439bd033cda66d56b96f92f243a8228fd87550ed7bdfdb3910160408051601f1981840301815291905262000223565b50506002805460ff191693151593909317835550506040805180820190915290815261060f60f31b6020820152620001aa99508c98506001975087965094506200027c9350505050565b5050505050620009bd565b6000546001600160a01b038281169116146200022057600080546040516001600160a01b03808516939216917f8be0079c531659141344cd1fd0a4f28419497f9722a3daafe3b4186f6b6457e091a3600080546001600160a01b0319166001600160a01b0383161790555b50565b60008281526001602052604090206200023d8282620007a8565b50817fece574603820d07bc9b91f2a932baadf4628aabcb8afba49776529c14a6104b282604051620002709190620008a2565b60405180910390a25050565b620002866200029a565b6200029484848484620002df565b50505050565b33620002ae6000546001600160a01b031690565b6001600160a01b031614620002dd5760405163bf1169c560e01b81523360048201526024015b60405180910390fd5b565b6001600160a01b0384166200030757604051630d2d5ec360e41b815260040160405180910390fd5b82600360008282546200031b9190620008b7565b90915550506001600160a01b038416600090815260046020526040812080548592906200034a908490620008b7565b90915550506040516001600160a01b0385169060009033907f3997e418d2cef0b3b0e907b1e39605c3f7d32dbd061e82ea5b4a770d46a160a6906200039590889088908890620008d9565b60405180910390a46000336000868685604051602001620003bb95949392919062000905565b60408051601f198184030181529190529050620003da858483620003e1565b5050505050565b620003f483631aed5a8560e21b620004fa565b156200049457604051631aed5a8560e21b81526001600160a01b03841690636bb56a14906200044a907f20804611b3e2ea21c480dc465142210acf4a2485947541770ec1fb87dee4a55c9085906004016200094d565b6000604051808303816000875af11580156200046a573d6000803e3d6000fd5b505050506040513d6000823e601f3d908101601f1916820160405262000294919081019062000970565b81620004f5576001600160a01b0383163b15620004d0576040516353047ddb60e11b81526001600160a01b0384166004820152602401620002d4565b6040516309b091fd60e21b81526001600160a01b0384166004820152602401620002d4565b505050565b604080516001600160e01b03198316602480830191909152825180830390910181526044909101909152602080820180516001600160e01b03166301ffc9a760e01b178152825160009392849283928392918391908a617530fa92503d915060005190508280156200056d575060208210155b80156200057a5750600081115b9450505050505b92915050565b634e487b7160e01b600052604160045260246000fd5b60005b83811015620005ba578181015183820152602001620005a0565b50506000910152565b60006001600160401b0380841115620005e057620005e062000587565b604051601f8501601f19908116603f011681019082821181831017156200060b576200060b62000587565b816040528093508581528686860111156200062557600080fd5b620006358660208301876200059d565b5050509392505050565b600082601f8301126200065157600080fd5b6200066283835160208501620005c3565b9392505050565b600080600080600060a086880312156200068257600080fd5b85516001600160401b03808211156200069a57600080fd5b620006a889838a016200063f565b96506020880151915080821115620006bf57600080fd5b50620006ce888289016200063f565b604088015190955090506001600160a01b0381168114620006ee57600080fd5b60608701516080880151919450925080151581146200070c57600080fd5b809150509295509295909350565b600181811c908216806200072f57607f821691505b6020821081036200075057634e487b7160e01b600052602260045260246000fd5b50919050565b601f821115620004f557600081815260208120601f850160051c810160208610156200077f5750805b601f850160051c820191505b81811015620007a0578281556001016200078b565b505050505050565b81516001600160401b03811115620007c457620007c462000587565b620007dc81620007d584546200071a565b8462000756565b602080601f831160018114620008145760008415620007fb5750858301515b600019600386901b1c1916600185901b178555620007a0565b600085815260208120601f198616915b82811015620008455788860151825594840194600190910190840162000824565b5085821015620008645787850151600019600388901b60f8161c191681555b5050505050600190811b01905550565b600081518084526200088e8160208601602086016200059d565b601f01601f19169290920160200192915050565b60208152600062000662602083018462000874565b808201808211156200058157634e487b7160e01b600052601160045260246000fd5b8381528215156020820152606060408201526000620008fc606083018462000874565b95945050505050565b6001600160a01b0386811682528581166020830152841660408201526060810183905260a060808201819052600090620009429083018462000874565b979650505050505050565b82815260406020820152600062000968604083018462000874565b949350505050565b6000602082840312156200098357600080fd5b81516001600160401b038111156200099a57600080fd5b8201601f81018413620009ac57600080fd5b6200096884825160208401620005c3565b612ad280620009cd6000396000f3fe6080604052600436106101845760003560e01c806370a08231116100d65780638da5cb5b1161007f578063d72fc29a11610059578063d72fc29a146104de578063dedff9c61461050b578063f2fde38b1461052b576101f8565b80638da5cb5b1461048357806397902421146104ab578063b49506fd146104be576101f8565b8063760d9bba116100b0578063760d9bba1461043057806378381670146104505780637f23690c14610470576101f8565b806370a08231146103c5578063715018a6146103fb5780637580d92014610410576101f8565b8063313ce5671161013857806354f6127f1161011257806354f6127f1461034b57806365aeaa95146103785780636963d43814610398576101f8565b8063313ce567146102ef57806344d171871461031657806350e8753214610336576101f8565b80632bc1da82116101695780632bc1da821461028d5780632d7667c9146102af57806330d0dc37146102cf576101f8565b806301ffc9a71461023957806318160ddd1461026e576101f8565b366101f857346000036101c65760405163e5099ee360e01b81526004016101bd9060208082526004908201526000604082015260600190565b60405180910390fd5b6040517f388f5adc00000000000000000000000000000000000000000000000000000000815260040160405180910390fd5b6000366060600482101561022357828260405163e5099ee360e01b81526004016101bd929190611e4e565b61022d838361054b565b80519350602001915050f35b34801561024557600080fd5b50610259610254366004611e7d565b61065a565b60405190151581526020015b60405180910390f35b34801561027a57600080fd5b506003545b604051908152602001610265565b34801561029957600080fd5b506102ad6102a8366004611f88565b6106a7565b005b3480156102bb57600080fd5b506102ad6102ca3660046121bd565b610750565b3480156102db57600080fd5b506102ad6102ea36600461228f565b610858565b3480156102fb57600080fd5b50610304610919565b60405160ff9091168152602001610265565b34801561032257600080fd5b506102ad610331366004611f88565b610932565b34801561034257600080fd5b506102ad61095d565b34801561035757600080fd5b5061036b6103663660046122fe565b6109a2565b6040516102659190612367565b34801561038457600080fd5b5061027f61039336600461237a565b6109ad565b3480156103a457600080fd5b506103b86103b33660046123ad565b610a13565b6040516102659190612422565b3480156103d157600080fd5b5061027f6103e0366004612484565b6001600160a01b031660009081526004602052604090205490565b34801561040757600080fd5b506102ad610b63565b34801561041c57600080fd5b506102ad61042b36600461249f565b610b75565b34801561043c57600080fd5b506102ad61044b3660046124d3565b610b89565b34801561045c57600080fd5b506102ad61046b36600461253f565b610bb1565b6102ad61047e36600461258f565b610cae565b34801561048f57600080fd5b506000546040516001600160a01b039091168152602001610265565b6102ad6104b93660046125d6565b610ce3565b3480156104ca57600080fd5b506102ad6104d9366004611f88565b610dd0565b3480156104ea57600080fd5b506104fe6104f9366004612484565b610e10565b6040516102659190612630565b34801561051757600080fd5b506103b861052636600461267d565b610e34565b34801561053757600080fd5b506102ad610546366004612484565b610edf565b606060006105646000356001600160e01b031916610f33565b5090506001600160a01b0381166105b5576040517fbb370b2b0000000000000000000000000000000000000000000000000000000081526001600160e01b03196000351660048201526024016101bd565b600080826001600160a01b031634878733346040516020016105da94939291906126b2565b60408051601f19818403018152908290526105f4916126e2565b60006040518083038185875af1925050503d8060008114610631576040519150601f19603f3d011682016040523d82523d6000602084013e610636565b606091505b5091509150811561064b579250610654915050565b80518060208301fd5b92915050565b60006001600160e01b031982167fc52d6008000000000000000000000000000000000000000000000000000000001480610698575061069882610fdd565b8061065457506106548261101b565b60006106b384336109ad565b9050806000036106fa576040517fcba6e9770000000000000000000000000000000000000000000000000000000081526001600160a01b03851660048201526024016101bd565b60006107068483612714565b9050610716338683600187611059565b600033828560405160200161072d93929190612727565b604051602081830303815290604052905061074886826111fe565b505050505050565b8451845181141580610763575083518114155b8061076f575082518114155b8061077b575081518114155b156107b2576040517f263eee8d00000000000000000000000000000000000000000000000000000000815260040160405180910390fd5b60005b8181101561084f576108478782815181106107d2576107d2612758565b60200260200101518783815181106107ec576107ec612758565b602002602001015187848151811061080657610806612758565b602002602001015187858151811061082057610820612758565b602002602001015187868151811061083a5761083a612758565b6020026020010151610b89565b6001016107b5565b50505050505050565b336001600160a01b0384161480159061087a5750336001600160a01b03851614155b156108ca576040517f1a525b320000000000000000000000000000000000000000000000000000000081523360048201526001600160a01b038085166024830152851660448201526064016101bd565b6108d8838560008585611059565b8115610913576000836000836040516020016108f69392919061276e565b604051602081830303815290604052905061091185826111fe565b505b50505050565b60025460009060ff1661092c5750601290565b50600090565b336001600160a01b0384161461094d5761094d338484611229565b6109588383836112d0565b505050565b6109a033600160006040518060400160405280600281526020017f3078000000000000000000000000000000000000000000000000000000000000815250611411565b565b606061065482611500565b6000826001600160a01b0316826001600160a01b0316036109e757506001600160a01b038116600090815260046020526040902054610654565b506001600160a01b03808216600090815260066020908152604080832093861683529290522054610654565b60608167ffffffffffffffff811115610a2e57610a2e611ec3565b604051908082528060200260200182016040528015610a6157816020015b6060815260200190600190039081610a4c5790505b50905060005b82811015610b5c5760008030868685818110610a8557610a85612758565b9050602002810190610a979190612799565b604051610aa59291906127e7565b600060405180830381855af49150503d8060008114610ae0576040519150601f19603f3d011682016040523d82523d6000602084013e610ae5565b606091505b509150915081610b3457805115610aff5780518082602001fd5b6040517fb774c284000000000000000000000000000000000000000000000000000000008152600481018490526024016101bd565b80848481518110610b4757610b47612758565b60209081029190910101525050600101610a67565b5092915050565b610b6b6115a2565b6109a060006115f7565b610b7d6115a2565b61091384848484611411565b336001600160a01b03861614610ba457610ba4338685611229565b610911858585858561167d565b336001600160a01b03841614801590610bd35750336001600160a01b03851614155b15610c23576040517f98ce29450000000000000000000000000000000000000000000000000000000081523360048201526001600160a01b038085166024830152851660448201526064016101bd565b6000610c2f85856109ad565b905082811015610c6b576040517f0ef76c3500000000000000000000000000000000000000000000000000000000815260040160405180910390fd5b828103610c7c858783600187611059565b6000858285604051602001610c9393929190612727565b604051602081830303815290604052905061084f87826111fe565b610cb66115a2565b3415610cd55760405163f36ba73760e01b815260040160405180910390fd5b610cdf8282611801565b5050565b610ceb6115a2565b3415610d0a5760405163f36ba73760e01b815260040160405180910390fd5b8051825114610d45576040517f3bcc897900000000000000000000000000000000000000000000000000000000815260040160405180910390fd5b8151600003610d80576040517f97da5f9500000000000000000000000000000000000000000000000000000000815260040160405180910390fd5b60005b825181101561095857610dc8838281518110610da157610da1612758565b6020026020010151838381518110610dbb57610dbb612758565b6020026020010151611801565b600101610d83565b610dde338484600185611059565b6000338383604051602001610df593929190612727565b604051602081830303815290604052905061091384826111fe565b6001600160a01b03811660009081526005602052604090206060906106549061180b565b6060815167ffffffffffffffff811115610e5057610e50611ec3565b604051908082528060200260200182016040528015610e8357816020015b6060815260200190600190039081610e6e5790505b50905060005b8251811015610ed957610eb4838281518110610ea757610ea7612758565b6020026020010151611500565b828281518110610ec657610ec6612758565b6020908102919091010152600101610e89565b50919050565b610ee76115a2565b6001600160a01b038116610f27576040517f1ad8836c00000000000000000000000000000000000000000000000000000000815260040160405180910390fd5b610f30816115f7565b50565b60008080610f6b7fcee78b4094da86011096000000000000000000000000000000000000000000006001600160e01b03198616611818565b90506000610f7882611500565b90508051601414158015610f8c5750805115155b15610fc557806040517f42bfe79f0000000000000000000000000000000000000000000000000000000081526004016101bd9190612367565b610fce816127f7565b60601c95600195509350505050565b60006001600160e01b031982167fa918fa6b000000000000000000000000000000000000000000000000000000001480610654575061065482611889565b60008061102e6301ffc9a760e01b610f33565b5090506001600160a01b0381166110485750600092915050565b61105281846118d7565b9392505050565b6001600160a01b038416611099576040517f6355e76600000000000000000000000000000000000000000000000000000000815260040160405180910390fd5b846001600160a01b0316846001600160a01b0316036110e4576040517fdab7504700000000000000000000000000000000000000000000000000000000815260040160405180910390fd5b6001600160a01b0380861660009081526006602090815260408083209388168352929052208390558215611186576001600160a01b03851660009081526005602052604090206111349085611975565b5082856001600160a01b0316856001600160a01b03167ff772a43bfdf4729b196e3fb54a818b91a2ca6c49d10b2e16278752f9f515c25d846040516111799190612367565b60405180910390a4610911565b6001600160a01b03851660009081526005602052604090206111a8908561198a565b50811515856001600160a01b0316856001600160a01b03167f0ebf5762d8855cbe012d2ca42fb33a81175e17c8a8751f8859931ba453bd4167846040516111ef9190612367565b60405180910390a45050505050565b610cdf827f386072cc5a58e61263b434c722725f21031cd06e7c552cfaa06db5de8a320dbc8361199f565b6001600160a01b03808316600090815260066020908152604080832093871683529290522054808211156112aa576040517ff3a6b6910000000000000000000000000000000000000000000000000000000081526001600160a01b0380851660048301526024820183905285166044820152606481018390526084016101bd565b61091383856112b98585612833565b600060405180602001604052806000815250611059565b6001600160a01b0383166112f757604051630d2d5ec360e41b815260040160405180910390fd5b6001600160a01b0383166000908152600460205260409020548083111561134a576040516308d4794960e01b8152600481018290526001600160a01b0385166024820152604481018490526064016101bd565b826003600082825461135c9190612833565b90915550506001600160a01b03841660009081526004602052604081208054859290611389908490612833565b90915550506040516000906001600160a01b0386169033907f3997e418d2cef0b3b0e907b1e39605c3f7d32dbd061e82ea5b4a770d46a160a6906113d290889086908990612846565b60405180910390a460003385600086866040516020016113f6959493929190612867565b60405160208183030381529060405290506109118582611a33565b6001600160a01b03841661143857604051630d2d5ec360e41b815260040160405180910390fd5b826003600082825461144a9190612714565b90915550506001600160a01b03841660009081526004602052604081208054859290611477908490612714565b90915550506040516001600160a01b0385169060009033907f3997e418d2cef0b3b0e907b1e39605c3f7d32dbd061e82ea5b4a770d46a160a6906114c090889088908890612846565b60405180910390a460003360008686856040516020016114e4959493929190612867565b6040516020818303038152906040529050610911858483611a5e565b600081815260016020526040902080546060919061151d906128a1565b80601f0160208091040260200160405190810160405280929190818152602001828054611549906128a1565b80156115965780601f1061156b57610100808354040283529160200191611596565b820191906000526020600020905b81548152906001019060200180831161157957829003601f168201915b50505050509050919050565b336115b56000546001600160a01b031690565b6001600160a01b0316146109a0576040517fbf1169c50000000000000000000000000000000000000000000000000000000081523360048201526024016101bd565b6000546001600160a01b03828116911614610f3057600080546040516001600160a01b03808516939216917f8be0079c531659141344cd1fd0a4f28419497f9722a3daafe3b4186f6b6457e091a3600080546001600160a01b0383167fffffffffffffffffffffffff000000000000000000000000000000000000000090911617905550565b6001600160a01b038516158061169a57506001600160a01b038416155b156116b857604051630d2d5ec360e41b815260040160405180910390fd5b6001600160a01b0385166000908152600460205260409020548084111561170b576040516308d4794960e01b8152600481018290526001600160a01b0387166024820152604481018590526064016101bd565b6001600160a01b03861660009081526004602052604081208054869290611733908490612833565b90915550506001600160a01b03851660009081526004602052604081208054869290611760908490612714565b92505081905550846001600160a01b0316866001600160a01b0316336001600160a01b03167f3997e418d2cef0b3b0e907b1e39605c3f7d32dbd061e82ea5b4a770d46a160a68787876040516117b893929190612846565b60405180910390a4600033878787866040516020016117db959493929190612867565b60405160208183030381529060405290506117f68782611a33565b61084f868583611a5e565b610cdf8282611b51565b6060600061105283611cb1565b604080517fffffffffffffffffffff00000000000000000000000000000000000000000000841660208201526000602a82018190526bffffffffffffffffffffffff198416602c83015291829101604051602081830303815290604052905080611881906128d5565b949350505050565b60006001600160e01b031982167f629aa69400000000000000000000000000000000000000000000000000000000148061065457506301ffc9a760e01b6001600160e01b0319831614610654565b604080516001600160e01b03198316602480830191909152825180830390910181526044909101909152602080820180517bffffffffffffffffffffffffffffffffffffffffffffffffffffffff166301ffc9a760e01b178152825160009392849283928392918391908a617530fa92503d9150600051905082801561195e575060208210155b801561196a5750600081115b979650505050505050565b6000611052836001600160a01b038416611d0c565b6000611052836001600160a01b038416611d5b565b6119b96001600160a01b038416631aed5a8560e21b6118d7565b1561095857604051631aed5a8560e21b81526001600160a01b03841690636bb56a14906119ec90859085906004016128f9565b6000604051808303816000875af1158015611a0b573d6000803e3d6000fd5b505050506040513d6000823e601f3d908101601f191682016040526109139190810190612912565b610cdf827f429ac7a06903dbc9c13dfcb3c9d11df8194581fa047c96d7a4171fc7402958ea8361199f565b611a6f83631aed5a8560e21b6118d7565b15611ac257604051631aed5a8560e21b81526001600160a01b03841690636bb56a14906119ec907f20804611b3e2ea21c480dc465142210acf4a2485947541770ec1fb87dee4a55c9085906004016128f9565b81610958576001600160a01b0383163b15611b14576040517fa608fbb60000000000000000000000000000000000000000000000000000000081526001600160a01b03841660048201526024016101bd565b6040517f26c247f40000000000000000000000000000000000000000000000000000000081526001600160a01b03841660048201526024016101bd565b7f2145e1d6d074577dc71ef54c3807742b41b053a9352ae6b491331509acb9750f8201611baa576040517f85c169bd00000000000000000000000000000000000000000000000000000000815260040160405180910390fd5b7fd0f59754f88971fe6bc5a6618cc9d5f1e859c58d16b22d1c7b2d3e2b246cd8aa8201611c03576040517f76755b3800000000000000000000000000000000000000000000000000000000815260040160405180910390fd5b7f1fd9e056a24d14c4abc642fcc325992a946906d0dbc57dd70278aaf12842024d8201611c5c576040517f4ef6d7fb00000000000000000000000000000000000000000000000000000000815260040160405180910390fd5b6000828152600160205260409020611c7482826129c6565b50817fece574603820d07bc9b91f2a932baadf4628aabcb8afba49776529c14a6104b282604051611ca59190612367565b60405180910390a25050565b60608160000180548060200260200160405190810160405280929190818152602001828054801561159657602002820191906000526020600020905b815481526020019060010190808311611ced5750505050509050919050565b6000818152600183016020526040812054611d5357508154600181810184556000848152602080822090930184905584548482528286019093526040902091909155610654565b506000610654565b60008181526001830160205260408120548015611e44576000611d7f600183612833565b8554909150600090611d9390600190612833565b9050818114611df8576000866000018281548110611db357611db3612758565b9060005260206000200154905080876000018481548110611dd657611dd6612758565b6000918252602080832090910192909255918252600188019052604090208390555b8554869080611e0957611e09612a86565b600190038181906000526020600020016000905590558560010160008681526020019081526020016000206000905560019350505050610654565b6000915050610654565b60208152816020820152818360408301376000818301604090810191909152601f909201601f19160101919050565b600060208284031215611e8f57600080fd5b81356001600160e01b03198116811461105257600080fd5b80356001600160a01b0381168114611ebe57600080fd5b919050565b634e487b7160e01b600052604160045260246000fd5b604051601f8201601f1916810167ffffffffffffffff81118282101715611f0257611f02611ec3565b604052919050565b600067ffffffffffffffff821115611f2457611f24611ec3565b50601f01601f191660200190565b600082601f830112611f4357600080fd5b8135611f56611f5182611f0a565b611ed9565b818152846020838601011115611f6b57600080fd5b816020850160208301376000918101602001919091529392505050565b600080600060608486031215611f9d57600080fd5b611fa684611ea7565b925060208401359150604084013567ffffffffffffffff811115611fc957600080fd5b611fd586828701611f32565b9150509250925092565b600067ffffffffffffffff821115611ff957611ff9611ec3565b5060051b60200190565b600082601f83011261201457600080fd5b81356020612024611f5183611fdf565b82815260059290921b8401810191818101908684111561204357600080fd5b8286015b848110156120655761205881611ea7565b8352918301918301612047565b509695505050505050565b600082601f83011261208157600080fd5b81356020612091611f5183611fdf565b82815260059290921b840181019181810190868411156120b057600080fd5b8286015b8481101561206557803583529183019183016120b4565b80358015158114611ebe57600080fd5b600082601f8301126120ec57600080fd5b813560206120fc611f5183611fdf565b82815260059290921b8401810191818101908684111561211b57600080fd5b8286015b8481101561206557612130816120cb565b835291830191830161211f565b600082601f83011261214e57600080fd5b8135602061215e611f5183611fdf565b82815260059290921b8401810191818101908684111561217d57600080fd5b8286015b8481101561206557803567ffffffffffffffff8111156121a15760008081fd5b6121af8986838b0101611f32565b845250918301918301612181565b600080600080600060a086880312156121d557600080fd5b853567ffffffffffffffff808211156121ed57600080fd5b6121f989838a01612003565b9650602088013591508082111561220f57600080fd5b61221b89838a01612003565b9550604088013591508082111561223157600080fd5b61223d89838a01612070565b9450606088013591508082111561225357600080fd5b61225f89838a016120db565b9350608088013591508082111561227557600080fd5b506122828882890161213d565b9150509295509295909350565b600080600080608085870312156122a557600080fd5b6122ae85611ea7565b93506122bc60208601611ea7565b92506122ca604086016120cb565b9150606085013567ffffffffffffffff8111156122e657600080fd5b6122f287828801611f32565b91505092959194509250565b60006020828403121561231057600080fd5b5035919050565b60005b8381101561233257818101518382015260200161231a565b50506000910152565b60008151808452612353816020860160208601612317565b601f01601f19169290920160200192915050565b602081526000611052602083018461233b565b6000806040838503121561238d57600080fd5b61239683611ea7565b91506123a460208401611ea7565b90509250929050565b600080602083850312156123c057600080fd5b823567ffffffffffffffff808211156123d857600080fd5b818501915085601f8301126123ec57600080fd5b8135818111156123fb57600080fd5b8660208260051b850101111561241057600080fd5b60209290920196919550909350505050565b6000602080830181845280855180835260408601915060408160051b870101925083870160005b8281101561247757603f1988860301845261246585835161233b565b94509285019290850190600101612449565b5092979650505050505050565b60006020828403121561249657600080fd5b61105282611ea7565b600080600080608085870312156124b557600080fd5b6124be85611ea7565b9350602085013592506122ca604086016120cb565b600080600080600060a086880312156124eb57600080fd5b6124f486611ea7565b945061250260208701611ea7565b935060408601359250612517606087016120cb565b9150608086013567ffffffffffffffff81111561253357600080fd5b61228288828901611f32565b6000806000806080858703121561255557600080fd5b61255e85611ea7565b935061256c60208601611ea7565b925060408501359150606085013567ffffffffffffffff8111156122e657600080fd5b600080604083850312156125a257600080fd5b82359150602083013567ffffffffffffffff8111156125c057600080fd5b6125cc85828601611f32565b9150509250929050565b600080604083850312156125e957600080fd5b823567ffffffffffffffff8082111561260157600080fd5b61260d86838701612070565b9350602085013591508082111561262357600080fd5b506125cc8582860161213d565b6020808252825182820181905260009190848201906040850190845b818110156126715783516001600160a01b03168352928401929184019160010161264c565b50909695505050505050565b60006020828403121561268f57600080fd5b813567ffffffffffffffff8111156126a657600080fd5b61188184828501612070565b8385823760609290921b6bffffffffffffffffffffffff1916919092019081526014810191909152603401919050565b600082516126f4818460208701612317565b9190910192915050565b634e487b7160e01b600052601160045260246000fd5b80820180821115610654576106546126fe565b6001600160a01b038416815282602082015260606040820152600061274f606083018461233b565b95945050505050565b634e487b7160e01b600052603260045260246000fd5b6001600160a01b038416815260ff8316602082015260606040820152600061274f606083018461233b565b6000808335601e198436030181126127b057600080fd5b83018035915067ffffffffffffffff8211156127cb57600080fd5b6020019150368190038213156127e057600080fd5b9250929050565b8183823760009101908152919050565b805160208201516bffffffffffffffffffffffff19808216929190601483101561282b5780818460140360031b1b83161693505b505050919050565b81810381811115610654576106546126fe565b838152821515602082015260606040820152600061274f606083018461233b565b60006001600160a01b038088168352808716602084015280861660408401525083606083015260a0608083015261196a60a083018461233b565b600181811c908216806128b557607f821691505b602082108103610ed957634e487b7160e01b600052602260045260246000fd5b80516020808301519190811015610ed95760001960209190910360031b1b16919050565b828152604060208201526000611881604083018461233b565b60006020828403121561292457600080fd5b815167ffffffffffffffff81111561293b57600080fd5b8201601f8101841361294c57600080fd5b805161295a611f5182611f0a565b81815285602083850101111561296f57600080fd5b61274f826020830160208601612317565b601f82111561095857600081815260208120601f850160051c810160208610156129a75750805b601f850160051c820191505b81811015610748578281556001016129b3565b815167ffffffffffffffff8111156129e0576129e0611ec3565b6129f4816129ee84546128a1565b84612980565b602080601f831160018114612a295760008415612a115750858301515b600019600386901b1c1916600185901b178555610748565b600085815260208120601f198616915b82811015612a5857888601518255948401946001909101908401612a39565b5085821015612a765787850151600019600388901b60f8161c191681555b5050505050600190811b01905550565b634e487b7160e01b600052603160045260246000fdfea2646970667358221220bca773e861f67bffa611819b6e5729d6b1584bf4d5969b98cfc20965a4a1308264736f6c63430008130033",
  "linkReferences": {},
  "deployedLinkReferences": {}
}