{
  "_format": "hh-sol-artifact-1",
  "contractName": "LSP7Mint",
  "sourceName": "contracts/LSP7Mintable.sol",
  "abi": [
    {
      "inputs": [
        {
          "internalType": "string",
          "name": "name",
          "type": "string"
        },
        {
          "internalType": "string",
          "name": "symbol",
          "type": "string"
        },
        {
          "internalType": "address",
          "name": "contractOwner",
          "type": "address"
        },
        {
          "internalType": "uint256",
          "name": "lsp4TokenType",
          "type": "uint256"
        },
        {
          "internalType": "bool",
          "name": "isNonDivisible",
          "type": "bool"
        }
      ],
      "stateMutability": "nonpayable",
      "type": "constructor"
    },
    {
      "inputs": [],
      "name": "ERC725Y_DataKeysValuesEmptyArray",
      "type": "error"
    },
    {
      "inputs": [],
      "name": "ERC725Y_DataKeysValuesLengthMismatch",
      "type": "error"
    },
    {
      "inputs": [],
      "name": "ERC725Y_MsgValueDisallowed",
      "type": "error"
    },
    {
      "inputs": [
        {
          "internalType": "bytes",
          "name": "storedData",
          "type": "bytes"
        }
      ],
      "name": "InvalidExtensionAddress",
      "type": "error"
    },
    {
      "inputs": [
        {
          "internalType": "bytes",
          "name": "data",
          "type": "bytes"
        }
      ],
      "name": "InvalidFunctionSelector",
      "type": "error"
    },
    {
      "inputs": [],
      "name": "LSP4TokenNameNotEditable",
      "type": "error"
    },
    {
      "inputs": [],
      "name": "LSP4TokenSymbolNotEditable",
      "type": "error"
    },
    {
      "inputs": [],
      "name": "LSP4TokenTypeNotEditable",
      "type": "error"
    },
    {
      "inputs": [
        {
          "internalType": "address",
          "name": "tokenOwner",
          "type": "address"
        },
        {
          "internalType": "uint256",
          "name": "authorizedAmount",
          "type": "uint256"
        },
        {
          "internalType": "address",
          "name": "operator",
          "type": "address"
        },
        {
          "internalType": "uint256",
          "name": "amount",
          "type": "uint256"
        }
      ],
      "name": "LSP7AmountExceedsAuthorizedAmount",
      "type": "error"
    },
    {
      "inputs": [
        {
          "internalType": "uint256",
          "name": "balance",
          "type": "uint256"
        },
        {
          "internalType": "address",
          "name": "tokenOwner",
          "type": "address"
        },
        {
          "internalType": "uint256",
          "name": "amount",
          "type": "uint256"
        }
      ],
      "name": "LSP7AmountExceedsBalance",
      "type": "error"
    },
    {
      "inputs": [
        {
          "internalType": "uint256",
          "name": "callIndex",
          "type": "uint256"
        }
      ],
      "name": "LSP7BatchCallFailed",
      "type": "error"
    },
    {
      "inputs": [],
      "name": "LSP7CannotSendWithAddressZero",
      "type": "error"
    },
    {
      "inputs": [],
      "name": "LSP7CannotUseAddressZeroAsOperator",
      "type": "error"
    },
    {
      "inputs": [
        {
          "internalType": "address",
          "name": "caller",
          "type": "address"
        },
        {
          "internalType": "address",
          "name": "tokenOwner",
          "type": "address"
        },
        {
          "internalType": "address",
          "name": "operator",
          "type": "address"
        }
      ],
      "name": "LSP7DecreaseAllowanceNotAuthorized",
      "type": "error"
    },
    {
      "inputs": [],
      "name": "LSP7DecreasedAllowanceBelowZero",
      "type": "error"
    },
    {
      "inputs": [],
      "name": "LSP7InvalidTransferBatch",
      "type": "error"
    },
    {
      "inputs": [
        {
          "internalType": "address",
          "name": "tokenReceiver",
          "type": "address"
        }
      ],
      "name": "LSP7NotifyTokenReceiverContractMissingLSP1Interface",
      "type": "error"
    },
    {
      "inputs": [
        {
          "internalType": "address",
          "name": "tokenReceiver",
          "type": "address"
        }
      ],
      "name": "LSP7NotifyTokenReceiverIsEOA",
      "type": "error"
    },
    {
      "inputs": [
        {
          "internalType": "address",
          "name": "caller",
          "type": "address"
        },
        {
          "internalType": "address",
          "name": "tokenOwner",
          "type": "address"
        },
        {
          "internalType": "address",
          "name": "operator",
          "type": "address"
        }
      ],
      "name": "LSP7RevokeOperatorNotAuthorized",
      "type": "error"
    },
    {
      "inputs": [],
      "name": "LSP7TokenContractCannotHoldValue",
      "type": "error"
    },
    {
      "inputs": [],
      "name": "LSP7TokenOwnerCannotBeOperator",
      "type": "error"
    },
    {
      "inputs": [
        {
          "internalType": "bytes4",
          "name": "functionSelector",
          "type": "bytes4"
        }
      ],
      "name": "NoExtensionFoundForFunctionSelector",
      "type": "error"
    },
    {
      "inputs": [
        {
          "internalType": "address",
          "name": "operator",
          "type": "address"
        }
      ],
      "name": "OperatorAllowanceCannotBeIncreasedFromZero",
      "type": "error"
    },
    {
      "inputs": [
        {
          "internalType": "address",
          "name": "callerAddress",
          "type": "address"
        }
      ],
      "name": "OwnableCallerNotTheOwner",
      "type": "error"
    },
    {
      "inputs": [],
      "name": "OwnableCannotSetZeroAddressAsOwner",
      "type": "error"
    },
    {
      "anonymous": false,
      "inputs": [
        {
          "indexed": true,
          "internalType": "bytes32",
          "name": "dataKey",
          "type": "bytes32"
        },
        {
          "indexed": false,
          "internalType": "bytes",
          "name": "dataValue",
          "type": "bytes"
        }
      ],
      "name": "DataChanged",
      "type": "event"
    },
    {
      "anonymous": false,
      "inputs": [
        {
          "indexed": true,
          "internalType": "address",
          "name": "operator",
          "type": "address"
        },
        {
          "indexed": true,
          "internalType": "address",
          "name": "tokenOwner",
          "type": "address"
        },
        {
          "indexed": true,
          "internalType": "uint256",
          "name": "amount",
          "type": "uint256"
        },
        {
          "indexed": false,
          "internalType": "bytes",
          "name": "operatorNotificationData",
          "type": "bytes"
        }
      ],
      "name": "OperatorAuthorizationChanged",
      "type": "event"
    },
    {
      "anonymous": false,
      "inputs": [
        {
          "indexed": true,
          "internalType": "address",
          "name": "operator",
          "type": "address"
        },
        {
          "indexed": true,
          "internalType": "address",
          "name": "tokenOwner",
          "type": "address"
        },
        {
          "indexed": true,
          "internalType": "bool",
          "name": "notified",
          "type": "bool"
        },
        {
          "indexed": false,
          "internalType": "bytes",
          "name": "operatorNotificationData",
          "type": "bytes"
        }
      ],
      "name": "OperatorRevoked",
      "type": "event"
    },
    {
      "anonymous": false,
      "inputs": [
        {
          "indexed": true,
          "internalType": "address",
          "name": "previousOwner",
          "type": "address"
        },
        {
          "indexed": true,
          "internalType": "address",
          "name": "newOwner",
          "type": "address"
        }
      ],
      "name": "OwnershipTransferred",
      "type": "event"
    },
    {
      "anonymous": false,
      "inputs": [
        {
          "indexed": true,
          "internalType": "address",
          "name": "operator",
          "type": "address"
        },
        {
          "indexed": true,
          "internalType": "address",
          "name": "from",
          "type": "address"
        },
        {
          "indexed": true,
          "internalType": "address",
          "name": "to",
          "type": "address"
        },
        {
          "indexed": false,
          "internalType": "uint256",
          "name": "amount",
          "type": "uint256"
        },
        {
          "indexed": false,
          "internalType": "bool",
          "name": "force",
          "type": "bool"
        },
        {
          "indexed": false,
          "internalType": "bytes",
          "name": "data",
          "type": "bytes"
        }
      ],
      "name": "Transfer",
      "type": "event"
    },
    {
      "stateMutability": "payable",
      "type": "fallback"
    },
    {
      "inputs": [
        {
          "internalType": "address",
          "name": "operator",
          "type": "address"
        },
        {
          "internalType": "uint256",
          "name": "amount",
          "type": "uint256"
        },
        {
          "internalType": "bytes",
          "name": "operatorNotificationData",
          "type": "bytes"
        }
      ],
      "name": "authorizeOperator",
      "outputs": [],
      "stateMutability": "nonpayable",
      "type": "function"
    },
    {
      "inputs": [
        {
          "internalType": "address",
          "name": "operator",
          "type": "address"
        },
        {
          "internalType": "address",
          "name": "tokenOwner",
          "type": "address"
        }
      ],
      "name": "authorizedAmountFor",
      "outputs": [
        {
          "internalType": "uint256",
          "name": "",
          "type": "uint256"
        }
      ],
      "stateMutability": "view",
      "type": "function"
    },
    {
      "inputs": [
        {
          "internalType": "address",
          "name": "tokenOwner",
          "type": "address"
        }
      ],
      "name": "balanceOf",
      "outputs": [
        {
          "internalType": "uint256",
          "name": "",
          "type": "uint256"
        }
      ],
      "stateMutability": "view",
      "type": "function"
    },
    {
      "inputs": [
        {
          "internalType": "bytes[]",
          "name": "data",
          "type": "bytes[]"
        }
      ],
      "name": "batchCalls",
      "outputs": [
        {
          "internalType": "bytes[]",
          "name": "results",
          "type": "bytes[]"
        }
      ],
      "stateMutability": "nonpayable",
      "type": "function"
    },
    {
      "inputs": [
        {
          "internalType": "address",
          "name": "from",
          "type": "address"
        },
        {
          "internalType": "uint256",
          "name": "amount",
          "type": "uint256"
        },
        {
          "internalType": "bytes",
          "name": "data",
          "type": "bytes"
        }
      ],
      "name": "burn",
      "outputs": [],
      "stateMutability": "nonpayable",
      "type": "function"
    },
    {
      "inputs": [],
      "name": "decimals",
      "outputs": [
        {
          "internalType": "uint8",
          "name": "",
          "type": "uint8"
        }
      ],
      "stateMutability": "view",
      "type": "function"
    },
    {
      "inputs": [
        {
          "internalType": "address",
          "name": "operator",
          "type": "address"
        },
        {
          "internalType": "address",
          "name": "tokenOwner",
          "type": "address"
        },
        {
          "internalType": "uint256",
          "name": "subtractedAmount",
          "type": "uint256"
        },
        {
          "internalType": "bytes",
          "name": "operatorNotificationData",
          "type": "bytes"
        }
      ],
      "name": "decreaseAllowance",
      "outputs": [],
      "stateMutability": "nonpayable",
      "type": "function"
    },
    {
      "inputs": [
        {
          "internalType": "bytes32",
          "name": "dataKey",
          "type": "bytes32"
        }
      ],
      "name": "getData",
      "outputs": [
        {
          "internalType": "bytes",
          "name": "dataValue",
          "type": "bytes"
        }
      ],
      "stateMutability": "view",
      "type": "function"
    },
    {
      "inputs": [
        {
          "internalType": "bytes32[]",
          "name": "dataKeys",
          "type": "bytes32[]"
        }
      ],
      "name": "getDataBatch",
      "outputs": [
        {
          "internalType": "bytes[]",
          "name": "dataValues",
          "type": "bytes[]"
        }
      ],
      "stateMutability": "view",
      "type": "function"
    },
    {
      "inputs": [
        {
          "internalType": "address",
          "name": "tokenOwner",
          "type": "address"
        }
      ],
      "name": "getOperatorsOf",
      "outputs": [
        {
          "internalType": "address[]",
          "name": "",
          "type": "address[]"
        }
      ],
      "stateMutability": "view",
      "type": "function"
    },
    {
      "inputs": [
        {
          "internalType": "address",
          "name": "operator",
          "type": "address"
        },
        {
          "internalType": "uint256",
          "name": "addedAmount",
          "type": "uint256"
        },
        {
          "internalType": "bytes",
          "name": "operatorNotificationData",
          "type": "bytes"
        }
      ],
      "name": "increaseAllowance",
      "outputs": [],
      "stateMutability": "nonpayable",
      "type": "function"
    },
    {
      "inputs": [
        {
          "internalType": "address",
          "name": "to",
          "type": "address"
        },
        {
          "internalType": "uint256",
          "name": "amount",
          "type": "uint256"
        },
        {
          "internalType": "bool",
          "name": "force",
          "type": "bool"
        },
        {
          "internalType": "bytes",
          "name": "data",
          "type": "bytes"
        }
      ],
      "name": "mint",
      "outputs": [],
      "stateMutability": "nonpayable",
      "type": "function"
    },
    {
      "inputs": [],
      "name": "owner",
      "outputs": [
        {
          "internalType": "address",
          "name": "",
          "type": "address"
        }
      ],
      "stateMutability": "view",
      "type": "function"
    },
    {
      "inputs": [],
      "name": "renounceOwnership",
      "outputs": [],
      "stateMutability": "nonpayable",
      "type": "function"
    },
    {
      "inputs": [
        {
          "internalType": "address",
          "name": "operator",
          "type": "address"
        },
        {
          "internalType": "address",
          "name": "tokenOwner",
          "type": "address"
        },
        {
          "internalType": "bool",
          "name": "notify",
          "type": "bool"
        },
        {
          "internalType": "bytes",
          "name": "operatorNotificationData",
          "type": "bytes"
        }
      ],
      "name": "revokeOperator",
      "outputs": [],
      "stateMutability": "nonpayable",
      "type": "function"
    },
    {
      "inputs": [
        {
          "internalType": "bytes32",
          "name": "dataKey",
          "type": "bytes32"
        },
        {
          "internalType": "bytes",
          "name": "dataValue",
          "type": "bytes"
        }
      ],
      "name": "setData",
      "outputs": [],
      "stateMutability": "payable",
      "type": "function"
    },
    {
      "inputs": [
        {
          "internalType": "bytes32[]",
          "name": "dataKeys",
          "type": "bytes32[]"
        },
        {
          "internalType": "bytes[]",
          "name": "dataValues",
          "type": "bytes[]"
        }
      ],
      "name": "setDataBatch",
      "outputs": [],
      "stateMutability": "payable",
      "type": "function"
    },
    {
      "inputs": [
        {
          "internalType": "bytes4",
          "name": "interfaceId",
          "type": "bytes4"
        }
      ],
      "name": "supportsInterface",
      "outputs": [
        {
          "internalType": "bool",
          "name": "",
          "type": "bool"
        }
      ],
      "stateMutability": "view",
      "type": "function"
    },
    {
      "inputs": [],
      "name": "totalSupply",
      "outputs": [
        {
          "internalType": "uint256",
          "name": "",
          "type": "uint256"
        }
      ],
      "stateMutability": "view",
      "type": "function"
    },
    {
      "inputs": [
        {
          "internalType": "address",
          "name": "from",
          "type": "address"
        },
        {
          "internalType": "address",
          "name": "to",
          "type": "address"
        },
        {
          "internalType": "uint256",
          "name": "amount",
          "type": "uint256"
        },
        {
          "internalType": "bool",
          "name": "force",
          "type": "bool"
        },
        {
          "internalType": "bytes",
          "name": "data",
          "type": "bytes"
        }
      ],
      "name": "transfer",
      "outputs": [],
      "stateMutability": "nonpayable",
      "type": "function"
    },
    {
      "inputs": [
        {
          "internalType": "address[]",
          "name": "from",
          "type": "address[]"
        },
        {
          "internalType": "address[]",
          "name": "to",
          "type": "address[]"
        },
        {
          "internalType": "uint256[]",
          "name": "amount",
          "type": "uint256[]"
        },
        {
          "internalType": "bool[]",
          "name": "force",
          "type": "bool[]"
        },
        {
          "internalType": "bytes[]",
          "name": "data",
          "type": "bytes[]"
        }
      ],
      "name": "transferBatch",
      "outputs": [],
      "stateMutability": "nonpayable",
      "type": "function"
    },
    {
      "inputs": [
        {
          "internalType": "address",
          "name": "newOwner",
          "type": "address"
        }
      ],
      "name": "transferOwnership",
      "outputs": [],
      "stateMutability": "nonpayable",
      "type": "function"
    },
    {
      "stateMutability": "payable",
      "type": "receive"
    }
  ],
  "bytecode": "0x60806040523480156200001157600080fd5b506040516200343c3803806200343c833981016040819052620000349162000669565b8484848484848484848484848484816001600160a01b0381166200006b576040516306b620db60e21b815260040160405180910390fd5b6200007681620001b5565b506040805180820190915260048152632936598960e21b6020820152620000bf907feafec4d89fa9619884b60000a4d96624a38f7ac2d8d9a604ecf07c12c77e480c9062000223565b620000eb7fdeba1e292f8ba88238e10ab3c7f88bd4be4fac56cad5194b6ecceaf653468af18562000223565b620001177f2f0a68ab07768e01943a599e73362a0e17a63a72e94dd2e384d2c1d4db9327568462000223565b604080516020810183905262000160917fe0261fa95db2eb3b5439bd033cda66d56b96f92f243a8228fd87550ed7bdfdb3910160408051601f1981840301815291905262000223565b50506002805460ff191693151593909317835550506040805180820190915290815261060f60f31b6020820152620001aa99508c98506001975087965094506200027c9350505050565b5050505050620009bd565b6000546001600160a01b038281169116146200022057600080546040516001600160a01b03808516939216917f8be0079c531659141344cd1fd0a4f28419497f9722a3daafe3b4186f6b6457e091a3600080546001600160a01b0319166001600160a01b0383161790555b50565b60008281526001602052604090206200023d8282620007a8565b50817fece574603820d07bc9b91f2a932baadf4628aabcb8afba49776529c14a6104b282604051620002709190620008a2565b60405180910390a25050565b620002866200029a565b6200029484848484620002df565b50505050565b33620002ae6000546001600160a01b031690565b6001600160a01b031614620002dd5760405163bf1169c560e01b81523360048201526024015b60405180910390fd5b565b6001600160a01b0384166200030757604051630d2d5ec360e41b815260040160405180910390fd5b82600360008282546200031b9190620008b7565b90915550506001600160a01b038416600090815260046020526040812080548592906200034a908490620008b7565b90915550506040516001600160a01b0385169060009033907f3997e418d2cef0b3b0e907b1e39605c3f7d32dbd061e82ea5b4a770d46a160a6906200039590889088908890620008d9565b60405180910390a46000336000868685604051602001620003bb95949392919062000905565b60408051601f198184030181529190529050620003da858483620003e1565b5050505050565b620003f483631aed5a8560e21b620004fa565b156200049457604051631aed5a8560e21b81526001600160a01b03841690636bb56a14906200044a907f20804611b3e2ea21c480dc465142210acf4a2485947541770ec1fb87dee4a55c9085906004016200094d565b6000604051808303816000875af11580156200046a573d6000803e3d6000fd5b505050506040513d6000823e601f3d908101601f1916820160405262000294919081019062000970565b81620004f5576001600160a01b0383163b15620004d0576040516353047ddb60e11b81526001600160a01b0384166004820152602401620002d4565b6040516309b091fd60e21b81526001600160a01b0384166004820152602401620002d4565b505050565b604080516001600160e01b03198316602480830191909152825180830390910181526044909101909152602080820180516001600160e01b03166301ffc9a760e01b178152825160009392849283928392918391908a617530fa92503d915060005190508280156200056d575060208210155b80156200057a5750600081115b9450505050505b92915050565b634e487b7160e01b600052604160045260246000fd5b60005b83811015620005ba578181015183820152602001620005a0565b50506000910152565b60006001600160401b0380841115620005e057620005e062000587565b604051601f8501601f19908116603f011681019082821181831017156200060b576200060b62000587565b816040528093508581528686860111156200062557600080fd5b620006358660208301876200059d565b5050509392505050565b600082601f8301126200065157600080fd5b6200066283835160208501620005c3565b9392505050565b600080600080600060a086880312156200068257600080fd5b85516001600160401b03808211156200069a57600080fd5b620006a889838a016200063f565b96506020880151915080821115620006bf57600080fd5b50620006ce888289016200063f565b604088015190955090506001600160a01b0381168114620006ee57600080fd5b60608701516080880151919450925080151581146200070c57600080fd5b809150509295509295909350565b600181811c908216806200072f57607f821691505b6020821081036200075057634e487b7160e01b600052602260045260246000fd5b50919050565b601f821115620004f557600081815260208120601f850160051c810160208610156200077f5750805b601f850160051c820191505b81811015620007a0578281556001016200078b565b505050505050565b81516001600160401b03811115620007c457620007c462000587565b620007dc81620007d584546200071a565b8462000756565b602080601f831160018114620008145760008415620007fb5750858301515b600019600386901b1c1916600185901b178555620007a0565b600085815260208120601f198616915b82811015620008455788860151825594840194600190910190840162000824565b5085821015620008645787850151600019600388901b60f8161c191681555b5050505050600190811b01905550565b600081518084526200088e8160208601602086016200059d565b601f01601f19169290920160200192915050565b60208152600062000662602083018462000874565b808201808211156200058157634e487b7160e01b600052601160045260246000fd5b8381528215156020820152606060408201526000620008fc606083018462000874565b95945050505050565b6001600160a01b0386811682528581166020830152841660408201526060810183905260a060808201819052600090620009429083018462000874565b979650505050505050565b82815260406020820152600062000968604083018462000874565b949350505050565b6000602082840312156200098357600080fd5b81516001600160401b038111156200099a57600080fd5b8201601f81018413620009ac57600080fd5b6200096884825160208401620005c3565b612a6f80620009cd6000396000f3fe6080604052600436106101795760003560e01c8063715018a6116100cb5780638da5cb5b1161007f578063d72fc29a11610059578063d72fc29a146104be578063dedff9c6146104eb578063f2fde38b1461050b576101ed565b80638da5cb5b14610463578063979024211461048b578063b49506fd1461049e576101ed565b8063760d9bba116100b0578063760d9bba1461041057806378381670146104305780637f23690c14610450576101ed565b8063715018a6146103db5780637580d920146103f0576101ed565b8063313ce5671161012d57806365aeaa951161010757806365aeaa95146103585780636963d4381461037857806370a08231146103a5576101ed565b8063313ce567146102e457806344d171871461030b57806354f6127f1461032b576101ed565b80632bc1da821161015e5780632bc1da82146102825780632d7667c9146102a457806330d0dc37146102c4576101ed565b806301ffc9a71461022e57806318160ddd14610263576101ed565b366101ed57346000036101bb5760405163e5099ee360e01b81526004016101b29060208082526004908201526000604082015260600190565b60405180910390fd5b6040517f388f5adc00000000000000000000000000000000000000000000000000000000815260040160405180910390fd5b6000366060600482101561021857828260405163e5099ee360e01b81526004016101b2929190611deb565b610222838361052b565b80519350602001915050f35b34801561023a57600080fd5b5061024e610249366004611e1a565b61063a565b60405190151581526020015b60405180910390f35b34801561026f57600080fd5b506003545b60405190815260200161025a565b34801561028e57600080fd5b506102a261029d366004611f25565b610687565b005b3480156102b057600080fd5b506102a26102bf36600461215a565b610730565b3480156102d057600080fd5b506102a26102df36600461222c565b610838565b3480156102f057600080fd5b506102f96108f9565b60405160ff909116815260200161025a565b34801561031757600080fd5b506102a2610326366004611f25565b610912565b34801561033757600080fd5b5061034b61034636600461229b565b61093d565b60405161025a9190612304565b34801561036457600080fd5b50610274610373366004612317565b610948565b34801561038457600080fd5b5061039861039336600461234a565b6109ae565b60405161025a91906123bf565b3480156103b157600080fd5b506102746103c0366004612421565b6001600160a01b031660009081526004602052604090205490565b3480156103e757600080fd5b506102a2610afe565b3480156103fc57600080fd5b506102a261040b36600461243c565b610b12565b34801561041c57600080fd5b506102a261042b366004612470565b610b26565b34801561043c57600080fd5b506102a261044b3660046124dc565b610b4e565b6102a261045e36600461252c565b610c4b565b34801561046f57600080fd5b506000546040516001600160a01b03909116815260200161025a565b6102a2610499366004612573565b610c80565b3480156104aa57600080fd5b506102a26104b9366004611f25565b610d6d565b3480156104ca57600080fd5b506104de6104d9366004612421565b610dad565b60405161025a91906125cd565b3480156104f757600080fd5b5061039861050636600461261a565b610dd1565b34801561051757600080fd5b506102a2610526366004612421565b610e7c565b606060006105446000356001600160e01b031916610ed0565b5090506001600160a01b038116610595576040517fbb370b2b0000000000000000000000000000000000000000000000000000000081526001600160e01b03196000351660048201526024016101b2565b600080826001600160a01b031634878733346040516020016105ba949392919061264f565b60408051601f19818403018152908290526105d49161267f565b60006040518083038185875af1925050503d8060008114610611576040519150601f19603f3d011682016040523d82523d6000602084013e610616565b606091505b5091509150811561062b579250610634915050565b80518060208301fd5b92915050565b60006001600160e01b031982167fc52d6008000000000000000000000000000000000000000000000000000000001480610678575061067882610f7a565b80610634575061063482610fb8565b60006106938433610948565b9050806000036106da576040517fcba6e9770000000000000000000000000000000000000000000000000000000081526001600160a01b03851660048201526024016101b2565b60006106e684836126b1565b90506106f6338683600187610ff6565b600033828560405160200161070d939291906126c4565b6040516020818303038152906040529050610728868261119b565b505050505050565b8451845181141580610743575083518114155b8061074f575082518114155b8061075b575081518114155b15610792576040517f263eee8d00000000000000000000000000000000000000000000000000000000815260040160405180910390fd5b60005b8181101561082f576108278782815181106107b2576107b26126f5565b60200260200101518783815181106107cc576107cc6126f5565b60200260200101518784815181106107e6576107e66126f5565b6020026020010151878581518110610800576108006126f5565b602002602001015187868151811061081a5761081a6126f5565b6020026020010151610b26565b600101610795565b50505050505050565b336001600160a01b0384161480159061085a5750336001600160a01b03851614155b156108aa576040517f1a525b320000000000000000000000000000000000000000000000000000000081523360048201526001600160a01b038085166024830152851660448201526064016101b2565b6108b8838560008585610ff6565b81156108f3576000836000836040516020016108d69392919061270b565b60405160208183030381529060405290506108f1858261119b565b505b50505050565b60025460009060ff1661090c5750601290565b50600090565b336001600160a01b0384161461092d5761092d3384846111c6565b61093883838361126d565b505050565b6060610634826113ae565b6000826001600160a01b0316826001600160a01b03160361098257506001600160a01b038116600090815260046020526040902054610634565b506001600160a01b03808216600090815260066020908152604080832093861683529290522054610634565b60608167ffffffffffffffff8111156109c9576109c9611e60565b6040519080825280602002602001820160405280156109fc57816020015b60608152602001906001900390816109e75790505b50905060005b82811015610af75760008030868685818110610a2057610a206126f5565b9050602002810190610a329190612736565b604051610a40929190612784565b600060405180830381855af49150503d8060008114610a7b576040519150601f19603f3d011682016040523d82523d6000602084013e610a80565b606091505b509150915081610acf57805115610a9a5780518082602001fd5b6040517fb774c284000000000000000000000000000000000000000000000000000000008152600481018490526024016101b2565b80848481518110610ae257610ae26126f5565b60209081029190910101525050600101610a02565b5092915050565b610b06611450565b610b1060006114a5565b565b610b1a611450565b6108f38484848461152b565b336001600160a01b03861614610b4157610b413386856111c6565b6108f1858585858561161a565b336001600160a01b03841614801590610b705750336001600160a01b03851614155b15610bc0576040517f98ce29450000000000000000000000000000000000000000000000000000000081523360048201526001600160a01b038085166024830152851660448201526064016101b2565b6000610bcc8585610948565b905082811015610c08576040517f0ef76c3500000000000000000000000000000000000000000000000000000000815260040160405180910390fd5b828103610c19858783600187610ff6565b6000858285604051602001610c30939291906126c4565b604051602081830303815290604052905061082f878261119b565b610c53611450565b3415610c725760405163f36ba73760e01b815260040160405180910390fd5b610c7c828261179e565b5050565b610c88611450565b3415610ca75760405163f36ba73760e01b815260040160405180910390fd5b8051825114610ce2576040517f3bcc897900000000000000000000000000000000000000000000000000000000815260040160405180910390fd5b8151600003610d1d576040517f97da5f9500000000000000000000000000000000000000000000000000000000815260040160405180910390fd5b60005b825181101561093857610d65838281518110610d3e57610d3e6126f5565b6020026020010151838381518110610d5857610d586126f5565b602002602001015161179e565b600101610d20565b610d7b338484600185610ff6565b6000338383604051602001610d92939291906126c4565b60405160208183030381529060405290506108f3848261119b565b6001600160a01b0381166000908152600560205260409020606090610634906117a8565b6060815167ffffffffffffffff811115610ded57610ded611e60565b604051908082528060200260200182016040528015610e2057816020015b6060815260200190600190039081610e0b5790505b50905060005b8251811015610e7657610e51838281518110610e4457610e446126f5565b60200260200101516113ae565b828281518110610e6357610e636126f5565b6020908102919091010152600101610e26565b50919050565b610e84611450565b6001600160a01b038116610ec4576040517f1ad8836c00000000000000000000000000000000000000000000000000000000815260040160405180910390fd5b610ecd816114a5565b50565b60008080610f087fcee78b4094da86011096000000000000000000000000000000000000000000006001600160e01b031986166117b5565b90506000610f15826113ae565b90508051601414158015610f295750805115155b15610f6257806040517f42bfe79f0000000000000000000000000000000000000000000000000000000081526004016101b29190612304565b610f6b81612794565b60601c95600195509350505050565b60006001600160e01b031982167fa918fa6b000000000000000000000000000000000000000000000000000000001480610634575061063482611826565b600080610fcb6301ffc9a760e01b610ed0565b5090506001600160a01b038116610fe55750600092915050565b610fef8184611874565b9392505050565b6001600160a01b038416611036576040517f6355e76600000000000000000000000000000000000000000000000000000000815260040160405180910390fd5b846001600160a01b0316846001600160a01b031603611081576040517fdab7504700000000000000000000000000000000000000000000000000000000815260040160405180910390fd5b6001600160a01b0380861660009081526006602090815260408083209388168352929052208390558215611123576001600160a01b03851660009081526005602052604090206110d19085611912565b5082856001600160a01b0316856001600160a01b03167ff772a43bfdf4729b196e3fb54a818b91a2ca6c49d10b2e16278752f9f515c25d846040516111169190612304565b60405180910390a46108f1565b6001600160a01b03851660009081526005602052604090206111459085611927565b50811515856001600160a01b0316856001600160a01b03167f0ebf5762d8855cbe012d2ca42fb33a81175e17c8a8751f8859931ba453bd41678460405161118c9190612304565b60405180910390a45050505050565b610c7c827f386072cc5a58e61263b434c722725f21031cd06e7c552cfaa06db5de8a320dbc8361193c565b6001600160a01b0380831660009081526006602090815260408083209387168352929052205480821115611247576040517ff3a6b6910000000000000000000000000000000000000000000000000000000081526001600160a01b0380851660048301526024820183905285166044820152606481018390526084016101b2565b6108f3838561125685856127d0565b600060405180602001604052806000815250610ff6565b6001600160a01b03831661129457604051630d2d5ec360e41b815260040160405180910390fd5b6001600160a01b038316600090815260046020526040902054808311156112e7576040516308d4794960e01b8152600481018290526001600160a01b0385166024820152604481018490526064016101b2565b82600360008282546112f991906127d0565b90915550506001600160a01b038416600090815260046020526040812080548592906113269084906127d0565b90915550506040516000906001600160a01b0386169033907f3997e418d2cef0b3b0e907b1e39605c3f7d32dbd061e82ea5b4a770d46a160a69061136f908890869089906127e3565b60405180910390a46000338560008686604051602001611393959493929190612804565b60405160208183030381529060405290506108f185826119d0565b60008181526001602052604090208054606091906113cb9061283e565b80601f01602080910402602001604051908101604052809291908181526020018280546113f79061283e565b80156114445780601f1061141957610100808354040283529160200191611444565b820191906000526020600020905b81548152906001019060200180831161142757829003601f168201915b50505050509050919050565b336114636000546001600160a01b031690565b6001600160a01b031614610b10576040517fbf1169c50000000000000000000000000000000000000000000000000000000081523360048201526024016101b2565b6000546001600160a01b03828116911614610ecd57600080546040516001600160a01b03808516939216917f8be0079c531659141344cd1fd0a4f28419497f9722a3daafe3b4186f6b6457e091a3600080546001600160a01b0383167fffffffffffffffffffffffff000000000000000000000000000000000000000090911617905550565b6001600160a01b03841661155257604051630d2d5ec360e41b815260040160405180910390fd5b826003600082825461156491906126b1565b90915550506001600160a01b038416600090815260046020526040812080548592906115919084906126b1565b90915550506040516001600160a01b0385169060009033907f3997e418d2cef0b3b0e907b1e39605c3f7d32dbd061e82ea5b4a770d46a160a6906115da908890889088906127e3565b60405180910390a460003360008686856040516020016115fe959493929190612804565b60405160208183030381529060405290506108f18584836119fb565b6001600160a01b038516158061163757506001600160a01b038416155b1561165557604051630d2d5ec360e41b815260040160405180910390fd5b6001600160a01b038516600090815260046020526040902054808411156116a8576040516308d4794960e01b8152600481018290526001600160a01b0387166024820152604481018590526064016101b2565b6001600160a01b038616600090815260046020526040812080548692906116d09084906127d0565b90915550506001600160a01b038516600090815260046020526040812080548692906116fd9084906126b1565b92505081905550846001600160a01b0316866001600160a01b0316336001600160a01b03167f3997e418d2cef0b3b0e907b1e39605c3f7d32dbd061e82ea5b4a770d46a160a6878787604051611755939291906127e3565b60405180910390a460003387878786604051602001611778959493929190612804565b604051602081830303815290604052905061179387826119d0565b61082f8685836119fb565b610c7c8282611aee565b60606000610fef83611c4e565b604080517fffffffffffffffffffff00000000000000000000000000000000000000000000841660208201526000602a82018190526bffffffffffffffffffffffff198416602c8301529182910160405160208183030381529060405290508061181e90612872565b949350505050565b60006001600160e01b031982167f629aa69400000000000000000000000000000000000000000000000000000000148061063457506301ffc9a760e01b6001600160e01b0319831614610634565b604080516001600160e01b03198316602480830191909152825180830390910181526044909101909152602080820180517bffffffffffffffffffffffffffffffffffffffffffffffffffffffff166301ffc9a760e01b178152825160009392849283928392918391908a617530fa92503d915060005190508280156118fb575060208210155b80156119075750600081115b979650505050505050565b6000610fef836001600160a01b038416611ca9565b6000610fef836001600160a01b038416611cf8565b6119566001600160a01b038416631aed5a8560e21b611874565b1561093857604051631aed5a8560e21b81526001600160a01b03841690636bb56a14906119899085908590600401612896565b6000604051808303816000875af11580156119a8573d6000803e3d6000fd5b505050506040513d6000823e601f3d908101601f191682016040526108f391908101906128af565b610c7c827f429ac7a06903dbc9c13dfcb3c9d11df8194581fa047c96d7a4171fc7402958ea8361193c565b611a0c83631aed5a8560e21b611874565b15611a5f57604051631aed5a8560e21b81526001600160a01b03841690636bb56a1490611989907f20804611b3e2ea21c480dc465142210acf4a2485947541770ec1fb87dee4a55c908590600401612896565b81610938576001600160a01b0383163b15611ab1576040517fa608fbb60000000000000000000000000000000000000000000000000000000081526001600160a01b03841660048201526024016101b2565b6040517f26c247f40000000000000000000000000000000000000000000000000000000081526001600160a01b03841660048201526024016101b2565b7f2145e1d6d074577dc71ef54c3807742b41b053a9352ae6b491331509acb9750f8201611b47576040517f85c169bd00000000000000000000000000000000000000000000000000000000815260040160405180910390fd5b7fd0f59754f88971fe6bc5a6618cc9d5f1e859c58d16b22d1c7b2d3e2b246cd8aa8201611ba0576040517f76755b3800000000000000000000000000000000000000000000000000000000815260040160405180910390fd5b7f1fd9e056a24d14c4abc642fcc325992a946906d0dbc57dd70278aaf12842024d8201611bf9576040517f4ef6d7fb00000000000000000000000000000000000000000000000000000000815260040160405180910390fd5b6000828152600160205260409020611c118282612963565b50817fece574603820d07bc9b91f2a932baadf4628aabcb8afba49776529c14a6104b282604051611c429190612304565b60405180910390a25050565b60608160000180548060200260200160405190810160405280929190818152602001828054801561144457602002820191906000526020600020905b815481526020019060010190808311611c8a5750505050509050919050565b6000818152600183016020526040812054611cf057508154600181810184556000848152602080822090930184905584548482528286019093526040902091909155610634565b506000610634565b60008181526001830160205260408120548015611de1576000611d1c6001836127d0565b8554909150600090611d30906001906127d0565b9050818114611d95576000866000018281548110611d5057611d506126f5565b9060005260206000200154905080876000018481548110611d7357611d736126f5565b6000918252602080832090910192909255918252600188019052604090208390555b8554869080611da657611da6612a23565b600190038181906000526020600020016000905590558560010160008681526020019081526020016000206000905560019350505050610634565b6000915050610634565b60208152816020820152818360408301376000818301604090810191909152601f909201601f19160101919050565b600060208284031215611e2c57600080fd5b81356001600160e01b031981168114610fef57600080fd5b80356001600160a01b0381168114611e5b57600080fd5b919050565b634e487b7160e01b600052604160045260246000fd5b604051601f8201601f1916810167ffffffffffffffff81118282101715611e9f57611e9f611e60565b604052919050565b600067ffffffffffffffff821115611ec157611ec1611e60565b50601f01601f191660200190565b600082601f830112611ee057600080fd5b8135611ef3611eee82611ea7565b611e76565b818152846020838601011115611f0857600080fd5b816020850160208301376000918101602001919091529392505050565b600080600060608486031215611f3a57600080fd5b611f4384611e44565b925060208401359150604084013567ffffffffffffffff811115611f6657600080fd5b611f7286828701611ecf565b9150509250925092565b600067ffffffffffffffff821115611f9657611f96611e60565b5060051b60200190565b600082601f830112611fb157600080fd5b81356020611fc1611eee83611f7c565b82815260059290921b84018101918181019086841115611fe057600080fd5b8286015b8481101561200257611ff581611e44565b8352918301918301611fe4565b509695505050505050565b600082601f83011261201e57600080fd5b8135602061202e611eee83611f7c565b82815260059290921b8401810191818101908684111561204d57600080fd5b8286015b848110156120025780358352918301918301612051565b80358015158114611e5b57600080fd5b600082601f83011261208957600080fd5b81356020612099611eee83611f7c565b82815260059290921b840181019181810190868411156120b857600080fd5b8286015b84811015612002576120cd81612068565b83529183019183016120bc565b600082601f8301126120eb57600080fd5b813560206120fb611eee83611f7c565b82815260059290921b8401810191818101908684111561211a57600080fd5b8286015b8481101561200257803567ffffffffffffffff81111561213e5760008081fd5b61214c8986838b0101611ecf565b84525091830191830161211e565b600080600080600060a0868803121561217257600080fd5b853567ffffffffffffffff8082111561218a57600080fd5b61219689838a01611fa0565b965060208801359150808211156121ac57600080fd5b6121b889838a01611fa0565b955060408801359150808211156121ce57600080fd5b6121da89838a0161200d565b945060608801359150808211156121f057600080fd5b6121fc89838a01612078565b9350608088013591508082111561221257600080fd5b5061221f888289016120da565b9150509295509295909350565b6000806000806080858703121561224257600080fd5b61224b85611e44565b935061225960208601611e44565b925061226760408601612068565b9150606085013567ffffffffffffffff81111561228357600080fd5b61228f87828801611ecf565b91505092959194509250565b6000602082840312156122ad57600080fd5b5035919050565b60005b838110156122cf5781810151838201526020016122b7565b50506000910152565b600081518084526122f08160208601602086016122b4565b601f01601f19169290920160200192915050565b602081526000610fef60208301846122d8565b6000806040838503121561232a57600080fd5b61233383611e44565b915061234160208401611e44565b90509250929050565b6000806020838503121561235d57600080fd5b823567ffffffffffffffff8082111561237557600080fd5b818501915085601f83011261238957600080fd5b81358181111561239857600080fd5b8660208260051b85010111156123ad57600080fd5b60209290920196919550909350505050565b6000602080830181845280855180835260408601915060408160051b870101925083870160005b8281101561241457603f198886030184526124028583516122d8565b945092850192908501906001016123e6565b5092979650505050505050565b60006020828403121561243357600080fd5b610fef82611e44565b6000806000806080858703121561245257600080fd5b61245b85611e44565b93506020850135925061226760408601612068565b600080600080600060a0868803121561248857600080fd5b61249186611e44565b945061249f60208701611e44565b9350604086013592506124b460608701612068565b9150608086013567ffffffffffffffff8111156124d057600080fd5b61221f88828901611ecf565b600080600080608085870312156124f257600080fd5b6124fb85611e44565b935061250960208601611e44565b925060408501359150606085013567ffffffffffffffff81111561228357600080fd5b6000806040838503121561253f57600080fd5b82359150602083013567ffffffffffffffff81111561255d57600080fd5b61256985828601611ecf565b9150509250929050565b6000806040838503121561258657600080fd5b823567ffffffffffffffff8082111561259e57600080fd5b6125aa8683870161200d565b935060208501359150808211156125c057600080fd5b50612569858286016120da565b6020808252825182820181905260009190848201906040850190845b8181101561260e5783516001600160a01b0316835292840192918401916001016125e9565b50909695505050505050565b60006020828403121561262c57600080fd5b813567ffffffffffffffff81111561264357600080fd5b61181e8482850161200d565b8385823760609290921b6bffffffffffffffffffffffff1916919092019081526014810191909152603401919050565b600082516126918184602087016122b4565b9190910192915050565b634e487b7160e01b600052601160045260246000fd5b808201808211156106345761063461269b565b6001600160a01b03841681528260208201526060604082015260006126ec60608301846122d8565b95945050505050565b634e487b7160e01b600052603260045260246000fd5b6001600160a01b038416815260ff831660208201526060604082015260006126ec60608301846122d8565b6000808335601e1984360301811261274d57600080fd5b83018035915067ffffffffffffffff82111561276857600080fd5b60200191503681900382131561277d57600080fd5b9250929050565b8183823760009101908152919050565b805160208201516bffffffffffffffffffffffff1980821692919060148310156127c85780818460140360031b1b83161693505b505050919050565b818103818111156106345761063461269b565b83815282151560208201526060604082015260006126ec60608301846122d8565b60006001600160a01b038088168352808716602084015280861660408401525083606083015260a0608083015261190760a08301846122d8565b600181811c9082168061285257607f821691505b602082108103610e7657634e487b7160e01b600052602260045260246000fd5b80516020808301519190811015610e765760001960209190910360031b1b16919050565b82815260406020820152600061181e60408301846122d8565b6000602082840312156128c157600080fd5b815167ffffffffffffffff8111156128d857600080fd5b8201601f810184136128e957600080fd5b80516128f7611eee82611ea7565b81815285602083850101111561290c57600080fd5b6126ec8260208301602086016122b4565b601f82111561093857600081815260208120601f850160051c810160208610156129445750805b601f850160051c820191505b8181101561072857828155600101612950565b815167ffffffffffffffff81111561297d5761297d611e60565b6129918161298b845461283e565b8461291d565b602080601f8311600181146129c657600084156129ae5750858301515b600019600386901b1c1916600185901b178555610728565b600085815260208120601f198616915b828110156129f5578886015182559484019460019091019084016129d6565b5085821015612a135787850151600019600388901b60f8161c191681555b5050505050600190811b01905550565b634e487b7160e01b600052603160045260246000fdfea264697066735822122047c19e8ccc0f466fa95545010b2ee391098ef8401b90fb74fd1e3dc4b2aedbdd64736f6c63430008130033",
  "linkReferences": {},
  "deployedLinkReferences": {}
}