{
  "_format": "hh-sol-artifact-1",
  "contractName": "BasicNFTCollection",
  "sourceName": "contracts/BasicNFTCollection.sol",
  "abi": [
    {
      "inputs": [
        {
          "internalType": "string",
          "name": "nftCollectionName",
          "type": "string"
        },
        {
          "internalType": "string",
          "name": "nftCollectionSymbol",
          "type": "string"
        },
        {
          "internalType": "uint256",
          "name": "LSP8Type",
          "type": "uint256"
        },
        {
          "internalType": "address",
          "name": "contractOwner",
          "type": "address"
        }
      ],
      "stateMutability": "nonpayable",
      "type": "constructor"
    },
    {
      "inputs": [],
      "name": "ERC725Y_DataKeysValuesEmptyArray",
      "type": "error"
    },
    {
      "inputs": [],
      "name": "ERC725Y_DataKeysValuesLengthMismatch",
      "type": "error"
    },
    {
      "inputs": [],
      "name": "ERC725Y_MsgValueDisallowed",
      "type": "error"
    },
    {
      "inputs": [
        {
          "internalType": "bytes",
          "name": "storedData",
          "type": "bytes"
        }
      ],
      "name": "InvalidExtensionAddress",
      "type": "error"
    },
    {
      "inputs": [
        {
          "internalType": "bytes",
          "name": "data",
          "type": "bytes"
        }
      ],
      "name": "InvalidFunctionSelector",
      "type": "error"
    },
    {
      "inputs": [],
      "name": "LSP4TokenNameNotEditable",
      "type": "error"
    },
    {
      "inputs": [],
      "name": "LSP4TokenSymbolNotEditable",
      "type": "error"
    },
    {
      "inputs": [],
      "name": "LSP4TokenTypeNotEditable",
      "type": "error"
    },
    {
      "inputs": [
        {
          "internalType": "uint256",
          "name": "callIndex",
          "type": "uint256"
        }
      ],
      "name": "LSP8BatchCallFailed",
      "type": "error"
    },
    {
      "inputs": [],
      "name": "LSP8CannotSendToAddressZero",
      "type": "error"
    },
    {
      "inputs": [],
      "name": "LSP8CannotUseAddressZeroAsOperator",
      "type": "error"
    },
    {
      "inputs": [],
      "name": "LSP8InvalidTransferBatch",
      "type": "error"
    },
    {
      "inputs": [
        {
          "internalType": "bytes32",
          "name": "tokenId",
          "type": "bytes32"
        }
      ],
      "name": "LSP8NonExistentTokenId",
      "type": "error"
    },
    {
      "inputs": [
        {
          "internalType": "address",
          "name": "operator",
          "type": "address"
        },
        {
          "internalType": "bytes32",
          "name": "tokenId",
          "type": "bytes32"
        }
      ],
      "name": "LSP8NonExistingOperator",
      "type": "error"
    },
    {
      "inputs": [
        {
          "internalType": "bytes32",
          "name": "tokenId",
          "type": "bytes32"
        },
        {
          "internalType": "address",
          "name": "caller",
          "type": "address"
        }
      ],
      "name": "LSP8NotTokenOperator",
      "type": "error"
    },
    {
      "inputs": [
        {
          "internalType": "address",
          "name": "tokenOwner",
          "type": "address"
        },
        {
          "internalType": "bytes32",
          "name": "tokenId",
          "type": "bytes32"
        },
        {
          "internalType": "address",
          "name": "caller",
          "type": "address"
        }
      ],
      "name": "LSP8NotTokenOwner",
      "type": "error"
    },
    {
      "inputs": [
        {
          "internalType": "address",
          "name": "tokenReceiver",
          "type": "address"
        }
      ],
      "name": "LSP8NotifyTokenReceiverContractMissingLSP1Interface",
      "type": "error"
    },
    {
      "inputs": [
        {
          "internalType": "address",
          "name": "tokenReceiver",
          "type": "address"
        }
      ],
      "name": "LSP8NotifyTokenReceiverIsEOA",
      "type": "error"
    },
    {
      "inputs": [
        {
          "internalType": "address",
          "name": "operator",
          "type": "address"
        },
        {
          "internalType": "bytes32",
          "name": "tokenId",
          "type": "bytes32"
        }
      ],
      "name": "LSP8OperatorAlreadyAuthorized",
      "type": "error"
    },
    {
      "inputs": [
        {
          "internalType": "address",
          "name": "caller",
          "type": "address"
        },
        {
          "internalType": "address",
          "name": "tokenOwner",
          "type": "address"
        },
        {
          "internalType": "bytes32",
          "name": "tokenId",
          "type": "bytes32"
        }
      ],
      "name": "LSP8RevokeOperatorNotAuthorized",
      "type": "error"
    },
    {
      "inputs": [],
      "name": "LSP8TokenContractCannotHoldValue",
      "type": "error"
    },
    {
      "inputs": [
        {
          "internalType": "bytes32",
          "name": "tokenId",
          "type": "bytes32"
        }
      ],
      "name": "LSP8TokenIdAlreadyMinted",
      "type": "error"
    },
    {
      "inputs": [],
      "name": "LSP8TokenIdFormatNotEditable",
      "type": "error"
    },
    {
      "inputs": [],
      "name": "LSP8TokenIdsDataEmptyArray",
      "type": "error"
    },
    {
      "inputs": [],
      "name": "LSP8TokenIdsDataLengthMismatch",
      "type": "error"
    },
    {
      "inputs": [],
      "name": "LSP8TokenOwnerCannotBeOperator",
      "type": "error"
    },
    {
      "inputs": [
        {
          "internalType": "bytes32",
          "name": "tokenId",
          "type": "bytes32"
        },
        {
          "internalType": "address",
          "name": "oldOwner",
          "type": "address"
        },
        {
          "internalType": "address",
          "name": "newOwner",
          "type": "address"
        }
      ],
      "name": "LSP8TokenOwnerChanged",
      "type": "error"
    },
    {
      "inputs": [
        {
          "internalType": "bytes4",
          "name": "functionSelector",
          "type": "bytes4"
        }
      ],
      "name": "NoExtensionFoundForFunctionSelector",
      "type": "error"
    },
    {
      "inputs": [
        {
          "internalType": "address",
          "name": "callerAddress",
          "type": "address"
        }
      ],
      "name": "OwnableCallerNotTheOwner",
      "type": "error"
    },
    {
      "inputs": [],
      "name": "OwnableCannotSetZeroAddressAsOwner",
      "type": "error"
    },
    {
      "anonymous": false,
      "inputs": [
        {
          "indexed": true,
          "internalType": "bytes32",
          "name": "dataKey",
          "type": "bytes32"
        },
        {
          "indexed": false,
          "internalType": "bytes",
          "name": "dataValue",
          "type": "bytes"
        }
      ],
      "name": "DataChanged",
      "type": "event"
    },
    {
      "anonymous": false,
      "inputs": [
        {
          "indexed": true,
          "internalType": "address",
          "name": "operator",
          "type": "address"
        },
        {
          "indexed": true,
          "internalType": "address",
          "name": "tokenOwner",
          "type": "address"
        },
        {
          "indexed": true,
          "internalType": "bytes32",
          "name": "tokenId",
          "type": "bytes32"
        },
        {
          "indexed": false,
          "internalType": "bytes",
          "name": "operatorNotificationData",
          "type": "bytes"
        }
      ],
      "name": "OperatorAuthorizationChanged",
      "type": "event"
    },
    {
      "anonymous": false,
      "inputs": [
        {
          "indexed": true,
          "internalType": "address",
          "name": "operator",
          "type": "address"
        },
        {
          "indexed": true,
          "internalType": "address",
          "name": "tokenOwner",
          "type": "address"
        },
        {
          "indexed": true,
          "internalType": "bytes32",
          "name": "tokenId",
          "type": "bytes32"
        },
        {
          "indexed": false,
          "internalType": "bool",
          "name": "notified",
          "type": "bool"
        },
        {
          "indexed": false,
          "internalType": "bytes",
          "name": "operatorNotificationData",
          "type": "bytes"
        }
      ],
      "name": "OperatorRevoked",
      "type": "event"
    },
    {
      "anonymous": false,
      "inputs": [
        {
          "indexed": true,
          "internalType": "address",
          "name": "previousOwner",
          "type": "address"
        },
        {
          "indexed": true,
          "internalType": "address",
          "name": "newOwner",
          "type": "address"
        }
      ],
      "name": "OwnershipTransferred",
      "type": "event"
    },
    {
      "anonymous": false,
      "inputs": [
        {
          "indexed": true,
          "internalType": "bytes32",
          "name": "tokenId",
          "type": "bytes32"
        },
        {
          "indexed": true,
          "internalType": "bytes32",
          "name": "dataKey",
          "type": "bytes32"
        },
        {
          "indexed": false,
          "internalType": "bytes",
          "name": "dataValue",
          "type": "bytes"
        }
      ],
      "name": "TokenIdDataChanged",
      "type": "event"
    },
    {
      "anonymous": false,
      "inputs": [
        {
          "indexed": false,
          "internalType": "address",
          "name": "operator",
          "type": "address"
        },
        {
          "indexed": true,
          "internalType": "address",
          "name": "from",
          "type": "address"
        },
        {
          "indexed": true,
          "internalType": "address",
          "name": "to",
          "type": "address"
        },
        {
          "indexed": true,
          "internalType": "bytes32",
          "name": "tokenId",
          "type": "bytes32"
        },
        {
          "indexed": false,
          "internalType": "bool",
          "name": "force",
          "type": "bool"
        },
        {
          "indexed": false,
          "internalType": "bytes",
          "name": "data",
          "type": "bytes"
        }
      ],
      "name": "Transfer",
      "type": "event"
    },
    {
      "stateMutability": "payable",
      "type": "fallback"
    },
    {
      "inputs": [
        {
          "internalType": "address",
          "name": "operator",
          "type": "address"
        },
        {
          "internalType": "bytes32",
          "name": "tokenId",
          "type": "bytes32"
        },
        {
          "internalType": "bytes",
          "name": "operatorNotificationData",
          "type": "bytes"
        }
      ],
      "name": "authorizeOperator",
      "outputs": [],
      "stateMutability": "nonpayable",
      "type": "function"
    },
    {
      "inputs": [
        {
          "internalType": "address",
          "name": "tokenOwner",
          "type": "address"
        }
      ],
      "name": "balanceOf",
      "outputs": [
        {
          "internalType": "uint256",
          "name": "",
          "type": "uint256"
        }
      ],
      "stateMutability": "view",
      "type": "function"
    },
    {
      "inputs": [
        {
          "internalType": "bytes[]",
          "name": "data",
          "type": "bytes[]"
        }
      ],
      "name": "batchCalls",
      "outputs": [
        {
          "internalType": "bytes[]",
          "name": "results",
          "type": "bytes[]"
        }
      ],
      "stateMutability": "nonpayable",
      "type": "function"
    },
    {
      "inputs": [
        {
          "internalType": "bytes32",
          "name": "dataKey",
          "type": "bytes32"
        }
      ],
      "name": "getData",
      "outputs": [
        {
          "internalType": "bytes",
          "name": "dataValue",
          "type": "bytes"
        }
      ],
      "stateMutability": "view",
      "type": "function"
    },
    {
      "inputs": [
        {
          "internalType": "bytes32[]",
          "name": "dataKeys",
          "type": "bytes32[]"
        }
      ],
      "name": "getDataBatch",
      "outputs": [
        {
          "internalType": "bytes[]",
          "name": "dataValues",
          "type": "bytes[]"
        }
      ],
      "stateMutability": "view",
      "type": "function"
    },
    {
      "inputs": [
        {
          "internalType": "bytes32[]",
          "name": "tokenIds",
          "type": "bytes32[]"
        },
        {
          "internalType": "bytes32[]",
          "name": "dataKeys",
          "type": "bytes32[]"
        }
      ],
      "name": "getDataBatchForTokenIds",
      "outputs": [
        {
          "internalType": "bytes[]",
          "name": "dataValues",
          "type": "bytes[]"
        }
      ],
      "stateMutability": "view",
      "type": "function"
    },
    {
      "inputs": [
        {
          "internalType": "bytes32",
          "name": "tokenId",
          "type": "bytes32"
        },
        {
          "internalType": "bytes32",
          "name": "dataKey",
          "type": "bytes32"
        }
      ],
      "name": "getDataForTokenId",
      "outputs": [
        {
          "internalType": "bytes",
          "name": "dataValue",
          "type": "bytes"
        }
      ],
      "stateMutability": "view",
      "type": "function"
    },
    {
      "inputs": [
        {
          "internalType": "bytes32",
          "name": "tokenId",
          "type": "bytes32"
        }
      ],
      "name": "getOperatorsOf",
      "outputs": [
        {
          "internalType": "address[]",
          "name": "",
          "type": "address[]"
        }
      ],
      "stateMutability": "view",
      "type": "function"
    },
    {
      "inputs": [
        {
          "internalType": "address",
          "name": "operator",
          "type": "address"
        },
        {
          "internalType": "bytes32",
          "name": "tokenId",
          "type": "bytes32"
        }
      ],
      "name": "isOperatorFor",
      "outputs": [
        {
          "internalType": "bool",
          "name": "",
          "type": "bool"
        }
      ],
      "stateMutability": "view",
      "type": "function"
    },
    {
      "inputs": [
        {
          "internalType": "address",
          "name": "to",
          "type": "address"
        },
        {
          "internalType": "bytes32",
          "name": "tokenId",
          "type": "bytes32"
        },
        {
          "internalType": "bool",
          "name": "force",
          "type": "bool"
        },
        {
          "internalType": "bytes",
          "name": "data",
          "type": "bytes"
        }
      ],
      "name": "mint",
      "outputs": [],
      "stateMutability": "nonpayable",
      "type": "function"
    },
    {
      "inputs": [],
      "name": "owner",
      "outputs": [
        {
          "internalType": "address",
          "name": "",
          "type": "address"
        }
      ],
      "stateMutability": "view",
      "type": "function"
    },
    {
      "inputs": [],
      "name": "renounceOwnership",
      "outputs": [],
      "stateMutability": "nonpayable",
      "type": "function"
    },
    {
      "inputs": [
        {
          "internalType": "address",
          "name": "operator",
          "type": "address"
        },
        {
          "internalType": "bytes32",
          "name": "tokenId",
          "type": "bytes32"
        },
        {
          "internalType": "bool",
          "name": "notify",
          "type": "bool"
        },
        {
          "internalType": "bytes",
          "name": "operatorNotificationData",
          "type": "bytes"
        }
      ],
      "name": "revokeOperator",
      "outputs": [],
      "stateMutability": "nonpayable",
      "type": "function"
    },
    {
      "inputs": [
        {
          "internalType": "bytes32",
          "name": "dataKey",
          "type": "bytes32"
        },
        {
          "internalType": "bytes",
          "name": "dataValue",
          "type": "bytes"
        }
      ],
      "name": "setData",
      "outputs": [],
      "stateMutability": "payable",
      "type": "function"
    },
    {
      "inputs": [
        {
          "internalType": "bytes32[]",
          "name": "dataKeys",
          "type": "bytes32[]"
        },
        {
          "internalType": "bytes[]",
          "name": "dataValues",
          "type": "bytes[]"
        }
      ],
      "name": "setDataBatch",
      "outputs": [],
      "stateMutability": "payable",
      "type": "function"
    },
    {
      "inputs": [
        {
          "internalType": "bytes32[]",
          "name": "tokenIds",
          "type": "bytes32[]"
        },
        {
          "internalType": "bytes32[]",
          "name": "dataKeys",
          "type": "bytes32[]"
        },
        {
          "internalType": "bytes[]",
          "name": "dataValues",
          "type": "bytes[]"
        }
      ],
      "name": "setDataBatchForTokenIds",
      "outputs": [],
      "stateMutability": "nonpayable",
      "type": "function"
    },
    {
      "inputs": [
        {
          "internalType": "bytes32",
          "name": "tokenId",
          "type": "bytes32"
        },
        {
          "internalType": "bytes32",
          "name": "dataKey",
          "type": "bytes32"
        },
        {
          "internalType": "bytes",
          "name": "dataValue",
          "type": "bytes"
        }
      ],
      "name": "setDataForTokenId",
      "outputs": [],
      "stateMutability": "nonpayable",
      "type": "function"
    },
    {
      "inputs": [
        {
          "internalType": "bytes4",
          "name": "interfaceId",
          "type": "bytes4"
        }
      ],
      "name": "supportsInterface",
      "outputs": [
        {
          "internalType": "bool",
          "name": "",
          "type": "bool"
        }
      ],
      "stateMutability": "view",
      "type": "function"
    },
    {
      "inputs": [
        {
          "internalType": "address",
          "name": "tokenOwner",
          "type": "address"
        }
      ],
      "name": "tokenIdsOf",
      "outputs": [
        {
          "internalType": "bytes32[]",
          "name": "",
          "type": "bytes32[]"
        }
      ],
      "stateMutability": "view",
      "type": "function"
    },
    {
      "inputs": [
        {
          "internalType": "bytes32",
          "name": "tokenId",
          "type": "bytes32"
        }
      ],
      "name": "tokenOwnerOf",
      "outputs": [
        {
          "internalType": "address",
          "name": "",
          "type": "address"
        }
      ],
      "stateMutability": "view",
      "type": "function"
    },
    {
      "inputs": [],
      "name": "totalSupply",
      "outputs": [
        {
          "internalType": "uint256",
          "name": "",
          "type": "uint256"
        }
      ],
      "stateMutability": "view",
      "type": "function"
    },
    {
      "inputs": [
        {
          "internalType": "address",
          "name": "from",
          "type": "address"
        },
        {
          "internalType": "address",
          "name": "to",
          "type": "address"
        },
        {
          "internalType": "bytes32",
          "name": "tokenId",
          "type": "bytes32"
        },
        {
          "internalType": "bool",
          "name": "force",
          "type": "bool"
        },
        {
          "internalType": "bytes",
          "name": "data",
          "type": "bytes"
        }
      ],
      "name": "transfer",
      "outputs": [],
      "stateMutability": "nonpayable",
      "type": "function"
    },
    {
      "inputs": [
        {
          "internalType": "address[]",
          "name": "from",
          "type": "address[]"
        },
        {
          "internalType": "address[]",
          "name": "to",
          "type": "address[]"
        },
        {
          "internalType": "bytes32[]",
          "name": "tokenId",
          "type": "bytes32[]"
        },
        {
          "internalType": "bool[]",
          "name": "force",
          "type": "bool[]"
        },
        {
          "internalType": "bytes[]",
          "name": "data",
          "type": "bytes[]"
        }
      ],
      "name": "transferBatch",
      "outputs": [],
      "stateMutability": "nonpayable",
      "type": "function"
    },
    {
      "inputs": [
        {
          "internalType": "address",
          "name": "newOwner",
          "type": "address"
        }
      ],
      "name": "transferOwnership",
      "outputs": [],
      "stateMutability": "nonpayable",
      "type": "function"
    },
    {
      "stateMutability": "payable",
      "type": "receive"
    }
  ],
  "bytecode": "0x60806040523480156200001157600080fd5b50604051620039f8380380620039f883398101604081905262000034916200080a565b838382846000848484848484848484816001600160a01b0381166200006c576040516306b620db60e21b815260040160405180910390fd5b6200007781620001f7565b506040805180820190915260048152632936598960e21b6020820152620000c0907feafec4d89fa9619884b60000a4d96624a38f7ac2d8d9a604ecf07c12c77e480c9062000265565b620000ec7fdeba1e292f8ba88238e10ab3c7f88bd4be4fac56cad5194b6ecceaf653468af18562000265565b620001187f2f0a68ab07768e01943a599e73362a0e17a63a72e94dd2e384d2c1d4db9327568462000265565b604080516020810183905262000161917fe0261fa95db2eb3b5439bd033cda66d56b96f92f243a8228fd87550ed7bdfdb3910160408051601f1981840301815291905262000265565b50506040805160208101859052620001ae93507ff675e9361af1c1664c1868cfa3eb97672d6b1a513aa5b81dec34c9ee330e818d92500160408051601f19818403018152919052620002be565b50505050505050505050600084620001c6906200089f565b9050620001ec3382600160405180602001604052806000815250620002ce60201b60201c565b505050505062000b6a565b6000546001600160a01b038281169116146200026257600080546040516001600160a01b03808516939216917f8be0079c531659141344cd1fd0a4f28419497f9722a3daafe3b4186f6b6457e091a3600080546001600160a01b0319166001600160a01b0383161790555b50565b60008281526001602052604090206200027f82826200094f565b50817fece574603820d07bc9b91f2a932baadf4628aabcb8afba49776529c14a6104b282604051620002b2919062000a49565b60405180910390a25050565b620002ca828262000459565b5050565b6001600160a01b038416620002f6576040516324ecef4d60e01b815260040160405180910390fd5b6000838152600360205260409020546001600160a01b03161562000335576040516334c7b51160e01b8152600481018490526024015b60405180910390fd5b6000838152600360205260409020546001600160a01b03161562000370576040516334c7b51160e01b8152600481018490526024016200032c565b600260008154620003819062000a5e565b909155506001600160a01b0384166000908152600460205260409020620003a990846200051c565b5060008381526003602052604080822080546001600160a01b0319166001600160a01b03881690811790915590518592907fb333c813a7426a7a11e2b190cad52c44119421594b47f6f32ace6d8c7207b2bf906200040d9033908890889062000a86565b60405180910390a460003360008686856040516020016200043395949392919062000abd565b60408051601f1981840301815291905290506200045285848362000533565b5050505050565b7f2145e1d6d074577dc71ef54c3807742b41b053a9352ae6b491331509acb9750f82016200049a576040516385c169bd60e01b815260040160405180910390fd5b7fd0f59754f88971fe6bc5a6618cc9d5f1e859c58d16b22d1c7b2d3e2b246cd8aa8201620004db57604051630eceab6760e31b815260040160405180910390fd5b7f1fd9e056a24d14c4abc642fcc325992a946906d0dbc57dd70278aaf12842024d82016200026557604051634ef6d7fb60e01b815260040160405180910390fd5b60006200052a838362000652565b90505b92915050565b6200054683631aed5a8560e21b620006a4565b15620005ec57604051631aed5a8560e21b81526001600160a01b03841690636bb56a14906200059c907f0b084a55ebf70fd3c06fd755269dac2212c4d3f0f4d09079780bfa50c1b2984d90859060040162000afa565b6000604051808303816000875af1158015620005bc573d6000803e3d6000fd5b505050506040513d6000823e601f3d908101601f19168201604052620005e6919081019062000b1d565b50505050565b816200064d576001600160a01b0383163b156200062857604051634349776d60e01b81526001600160a01b03841660048201526024016200032c565b604051630317313760e01b81526001600160a01b03841660048201526024016200032c565b505050565b60008181526001830160205260408120546200069b575081546001818101845560008481526020808220909301849055845484825282860190935260409020919091556200052d565b5060006200052d565b604080516001600160e01b03198316602480830191909152825180830390910181526044909101909152602080820180516001600160e01b03166301ffc9a760e01b178152825160009392849283928392918391908a617530fa92503d9150600051905082801562000717575060208210155b8015620007245750600081115b979650505050505050565b634e487b7160e01b600052604160045260246000fd5b60005b838110156200076257818101518382015260200162000748565b50506000910152565b60006001600160401b03808411156200078857620007886200072f565b604051601f8501601f19908116603f01168101908282118183101715620007b357620007b36200072f565b81604052809350858152868686011115620007cd57600080fd5b620007dd86602083018762000745565b5050509392505050565b600082601f830112620007f957600080fd5b6200052a838351602085016200076b565b600080600080608085870312156200082157600080fd5b84516001600160401b03808211156200083957600080fd5b6200084788838901620007e7565b955060208701519150808211156200085e57600080fd5b506200086d87828801620007e7565b60408701516060880151919550935090506001600160a01b03811681146200089457600080fd5b939692955090935050565b80516020808301519190811015620008c1576000198160200360031b1b821691505b50919050565b600181811c90821680620008dc57607f821691505b602082108103620008c157634e487b7160e01b600052602260045260246000fd5b601f8211156200064d57600081815260208120601f850160051c81016020861015620009265750805b601f850160051c820191505b81811015620009475782815560010162000932565b505050505050565b81516001600160401b038111156200096b576200096b6200072f565b62000983816200097c8454620008c7565b84620008fd565b602080601f831160018114620009bb5760008415620009a25750858301515b600019600386901b1c1916600185901b17855562000947565b600085815260208120601f198616915b82811015620009ec57888601518255948401946001909101908401620009cb565b508582101562000a0b5787850151600019600388901b60f8161c191681555b5050505050600190811b01905550565b6000815180845262000a3581602086016020860162000745565b601f01601f19169290920160200192915050565b6020815260006200052a602083018462000a1b565b60006001820162000a7f57634e487b7160e01b600052601160045260246000fd5b5060010190565b6001600160a01b0384168152821515602082015260606040820181905260009062000ab49083018462000a1b565b95945050505050565b6001600160a01b0386811682528581166020830152841660408201526060810183905260a060808201819052600090620007249083018462000a1b565b82815260406020820152600062000b15604083018462000a1b565b949350505050565b60006020828403121562000b3057600080fd5b81516001600160401b0381111562000b4757600080fd5b8201601f8101841362000b5957600080fd5b62000b15848251602084016200076b565b612e7e8062000b7a6000396000f3fe60806040526004361061018f5760003560e01c80637e87632c116100d6578063af255b611161007f578063db8c966311610059578063db8c96631461051f578063dedff9c61461053f578063f2fde38b1461055f57610203565b8063af255b61146104bf578063be9f0e6f146104df578063d6c1407c146104ff57610203565b80638da5cb5b116100b05780638da5cb5b14610461578063979024211461047f578063a3b261f21461049257610203565b80637e87632c1461040e5780637f23690c1461042e57806386a10ddd1461044157610203565b806349a6078d116101385780636963d438116101125780636963d438146103b957806370a08231146103d9578063715018a6146103f957610203565b806349a6078d1461034a578063511b69521461037757806354f6127f1461039957610203565b80631d26fce6116101695780631d26fce6146102c5578063217b2270146102f25780632a3654a41461032a57610203565b806301ffc9a71461024457806316e023b31461027957806318160ddd146102a657610203565b3661020357346000036101d15760405163e5099ee360e01b81526004016101c89060208082526004908201526000604082015260600190565b60405180910390fd5b6040517f61f4944200000000000000000000000000000000000000000000000000000000815260040160405180910390fd5b6000366060600482101561022e57828260405163e5099ee360e01b81526004016101c8929190612111565b610238838361057f565b80519350602001915050f35b34801561025057600080fd5b5061026461025f366004612140565b61068e565b60405190151581526020015b60405180910390f35b34801561028557600080fd5b5061029961029436600461216a565b6106db565b60405161027091906121dc565b3480156102b257600080fd5b506002545b604051908152602001610270565b3480156102d157600080fd5b506102e56102e03660046122c5565b6106ee565b6040516102709190612329565b3480156102fe57600080fd5b5061031261030d36600461238b565b6107d6565b6040516001600160a01b039091168152602001610270565b34801561033657600080fd5b506102646103453660046123c0565b61080f565b34801561035657600080fd5b5061036a61036536600461238b565b61081b565b60405161027091906123ea565b34801561038357600080fd5b506103976103923660046124c0565b61083d565b005b3480156103a557600080fd5b506102996103b436600461238b565b61089a565b3480156103c557600080fd5b506102e56103d4366004612539565b6108a5565b3480156103e557600080fd5b506102b76103f43660046125ae565b6109ee565b34801561040557600080fd5b50610397610a0f565b34801561041a57600080fd5b5061039761042936600461270d565b610a23565b61039761043c3660046127d2565b610b2b565b34801561044d57600080fd5b5061039761045c36600461280f565b610b60565b34801561046d57600080fd5b506000546001600160a01b0316610312565b61039761048d366004612866565b610cf3565b34801561049e57600080fd5b506104b26104ad3660046125ae565b610de5565b60405161027091906128c0565b3480156104cb57600080fd5b506103976104da3660046128f8565b610e09565b3480156104eb57600080fd5b506103976104fa366004612960565b610e23565b34801561050b57600080fd5b5061039761051a3660046129de565b610f01565b34801561052b57600080fd5b5061039761053a3660046128f8565b610f14565b34801561054b57600080fd5b506102e561055a366004612a18565b611011565b34801561056b57600080fd5b5061039761057a3660046125ae565b6110bc565b606060006105986000356001600160e01b031916611110565b5090506001600160a01b0381166105e9576040517fbb370b2b0000000000000000000000000000000000000000000000000000000081526001600160e01b03196000351660048201526024016101c8565b600080826001600160a01b0316348787333460405160200161060e9493929190612a4d565b60408051601f198184030181529082905261062891612a7d565b60006040518083038185875af1925050503d8060008114610665576040519150601f19603f3d011682016040523d82523d6000602084013e61066a565b606091505b5091509150811561067f579250610688915050565b80518060208301fd5b92915050565b60006001600160e01b031982167f3a2717060000000000000000000000000000000000000000000000000000000014806106cc57506106cc826111ba565b806106885750610688826111f8565b60606106e7838361122f565b9392505050565b60608151835114610712576040516317d38eff60e11b815260040160405180910390fd5b825167ffffffffffffffff81111561072c5761072c6121ef565b60405190808252806020026020018201604052801561075f57816020015b606081526020019060019003908161074a5790505b50905060005b83518110156107cf576107aa84828151811061078357610783612a99565b602002602001015184838151811061079d5761079d612a99565b602002602001015161122f565b8282815181106107bc576107bc612a99565b6020908102919091010152600101610765565b5092915050565b6000818152600360205260408120546001600160a01b03168061068857604051635747cd1b60e11b8152600481018490526024016101c8565b60006106e783836112dd565b60606108268261131a565b600082815260056020526040902061068890611352565b61084733846112dd565b610886576040517f1294d2a9000000000000000000000000000000000000000000000000000000008152600481018490523360248201526044016101c8565b610893858585858561135f565b5050505050565b606061068882611567565b60608167ffffffffffffffff8111156108c0576108c06121ef565b6040519080825280602002602001820160405280156108f357816020015b60608152602001906001900390816108de5790505b50905060005b828110156107cf576000803086868581811061091757610917612a99565b90506020028101906109299190612aaf565b604051610937929190612afd565b600060405180830381855af49150503d8060008114610972576040519150601f19603f3d011682016040523d82523d6000602084013e610977565b606091505b5091509150816109c6578051156109915780518082602001fd5b6040517f234eb819000000000000000000000000000000000000000000000000000000008152600481018490526024016101c8565b808484815181106109d9576109d9612a99565b602090810291909101015250506001016108f9565b6001600160a01b038116600090815260046020526040812061068890611609565b610a17611613565b610a216000611668565b565b8451845181141580610a36575083518114155b80610a42575082518114155b80610a4e575081518114155b15610a85576040517f93a8311900000000000000000000000000000000000000000000000000000000815260040160405180910390fd5b60005b81811015610b2257610b1a878281518110610aa557610aa5612a99565b6020026020010151878381518110610abf57610abf612a99565b6020026020010151878481518110610ad957610ad9612a99565b6020026020010151878581518110610af357610af3612a99565b6020026020010151878681518110610b0d57610b0d612a99565b602002602001015161083d565b600101610a88565b50505050505050565b610b33611613565b3415610b525760405163f36ba73760e01b815260040160405180910390fd5b610b5c82826116e3565b5050565b6000610b6b836107d6565b90506001600160a01b0381163314610bae57604051632d938f5160e11b81526001600160a01b0382166004820152602481018490523360448201526064016101c8565b6001600160a01b038416610bd557604051639577b8b360e01b815260040160405180910390fd5b836001600160a01b0316816001600160a01b031603610c07576040516344fed6b160e11b815260040160405180910390fd5b6000838152600560205260408120610c1f9086611746565b905080610c6a576040517fa7626b680000000000000000000000000000000000000000000000000000000081526001600160a01b0386166004820152602481018590526044016101c8565b83826001600160a01b0316866001600160a01b03167f1b1b58aa2ec0cec2228b2d37124556d41f5a1f7b12f089171f896cc23667121586604051610cae91906121dc565b60405180910390a460003385600186604051602001610cd09493929190612b0d565b6040516020818303038152906040529050610ceb868261175b565b505050505050565b610cfb611613565b3415610d1a5760405163f36ba73760e01b815260040160405180910390fd5b8051825114610d55576040517f3bcc897900000000000000000000000000000000000000000000000000000000815260040160405180910390fd5b8151600003610d90576040517f97da5f9500000000000000000000000000000000000000000000000000000000815260040160405180910390fd5b60005b8251811015610de057610dd8838281518110610db157610db1612a99565b6020026020010151838381518110610dcb57610dcb612a99565b60200260200101516116e3565b600101610d93565b505050565b6001600160a01b038116600090815260046020526040902060609061068890611352565b610e11611613565b610e1d84848484611786565b50505050565b610e2b611613565b81518351141580610e3e57508051825114155b15610e5c576040516317d38eff60e11b815260040160405180910390fd5b8251600003610e97576040517f80c9830500000000000000000000000000000000000000000000000000000000815260040160405180910390fd5b60005b8351811015610e1d57610ef9848281518110610eb857610eb8612a99565b6020026020010151848381518110610ed257610ed2612a99565b6020026020010151848481518110610eec57610eec612a99565b6020026020010151611903565b600101610e9a565b610f09611613565b610de0838383611903565b6000610f1f846107d6565b9050336001600160a01b03821614610f8b576001600160a01b0385163314610f8b576040517f760b5acd0000000000000000000000000000000000000000000000000000000081523360048201526001600160a01b0382166024820152604481018590526064016101c8565b6001600160a01b038516610fb257604051639577b8b360e01b815260040160405180910390fd5b846001600160a01b0316816001600160a01b031603610fe4576040516344fed6b160e11b815260040160405180910390fd5b610ff18582868686611965565b82156108935760008185600085604051602001610cd09493929190612b0d565b6060815167ffffffffffffffff81111561102d5761102d6121ef565b60405190808252806020026020018201604052801561106057816020015b606081526020019060019003908161104b5790505b50905060005b82518110156110b65761109183828151811061108457611084612a99565b6020026020010151611567565b8282815181106110a3576110a3612a99565b6020908102919091010152600101611066565b50919050565b6110c4611613565b6001600160a01b038116611104576040517f1ad8836c00000000000000000000000000000000000000000000000000000000815260040160405180910390fd5b61110d81611668565b50565b600080806111487fcee78b4094da86011096000000000000000000000000000000000000000000006001600160e01b03198616611a1e565b9050600061115582611567565b905080516014141580156111695750805115155b156111a257806040517f42bfe79f0000000000000000000000000000000000000000000000000000000081526004016101c891906121dc565b6111ab81612b47565b60601c95600195509350505050565b60006001600160e01b031982167fa918fa6b000000000000000000000000000000000000000000000000000000001480610688575061068882611a8f565b60008061120b6301ffc9a760e01b611110565b5090506001600160a01b0381166112255750600092915050565b6106e78184611add565b6000828152600660209081526040808320848452909152902080546060919061125790612b83565b80601f016020809104026020016040519081016040528092919081815260200182805461128390612b83565b80156112d05780601f106112a5576101008083540402835291602001916112d0565b820191906000526020600020905b8154815290600101906020018083116112b357829003601f168201915b5050505050905092915050565b60006112e8826107d6565b6001600160a01b0316836001600160a01b031614806106e7575060008281526005602052604090206106e79084611b7b565b6000818152600360205260409020546001600160a01b031661110d57604051635747cd1b60e11b8152600481018290526024016101c8565b606060006106e783611b9d565b600061136a846107d6565b9050856001600160a01b0316816001600160a01b0316146113b857604051632d938f5160e11b81526001600160a01b03808316600483015260248201869052871660448201526064016101c8565b6001600160a01b0385166113df576040516324ecef4d60e01b815260040160405180910390fd5b60006113ea856107d6565b9050806001600160a01b0316826001600160a01b031614611451576040517f5a9c31d3000000000000000000000000000000000000000000000000000000008152600481018690526001600160a01b038084166024830152821660448201526064016101c8565b61145b8786611bf8565b6001600160a01b038716600090815260046020526040902061147d9086611c50565b506001600160a01b03861660009081526004602052604090206114a09086611c5c565b5060008581526003602052604090819020805473ffffffffffffffffffffffffffffffffffffffff19166001600160a01b0389811691821790925591518792918a16907fb333c813a7426a7a11e2b190cad52c44119421594b47f6f32ace6d8c7207b2bf906115149033908a908a90612bb7565b60405180910390a460003388888887604051602001611537959493929190612bea565b60405160208183030381529060405290506115528882611c68565b61155d878683611c93565b5050505050505050565b600081815260016020526040902080546060919061158490612b83565b80601f01602080910402602001604051908101604052809291908181526020018280546115b090612b83565b80156115fd5780601f106115d2576101008083540402835291602001916115fd565b820191906000526020600020905b8154815290600101906020018083116115e057829003601f168201915b50505050509050919050565b6000610688825490565b336116266000546001600160a01b031690565b6001600160a01b031614610a21576040517fbf1169c50000000000000000000000000000000000000000000000000000000081523360048201526024016101c8565b6000546001600160a01b0382811691161461110d57600080546040516001600160a01b03808516939216917f8be0079c531659141344cd1fd0a4f28419497f9722a3daafe3b4186f6b6457e091a3600080546001600160a01b03831673ffffffffffffffffffffffffffffffffffffffff1990911617905550565b7f098a16c9e50e3e99b3e797305c146898d294e5aec55a47e213cb3611ccf17e73820161173c576040517f3664800a00000000000000000000000000000000000000000000000000000000815260040160405180910390fd5b610b5c8282611dcd565b60006106e7836001600160a01b038416611dd7565b610b5c827f8a1c15a8799f71b547e08e2bcb2e85257e81b0a07eee2ce6712549eef1f0097083611e26565b6001600160a01b0384166117ad576040516324ecef4d60e01b815260040160405180910390fd5b6000838152600360205260409020546001600160a01b0316156117e6576040516334c7b51160e01b8152600481018490526024016101c8565b6000838152600360205260409020546001600160a01b03161561181f576040516334c7b51160e01b8152600481018490526024016101c8565b60026000815461182e90612c3a565b909155506001600160a01b03841660009081526004602052604090206118549084611c5c565b50600083815260036020526040808220805473ffffffffffffffffffffffffffffffffffffffff19166001600160a01b03881690811790915590518592907fb333c813a7426a7a11e2b190cad52c44119421594b47f6f32ace6d8c7207b2bf906118c390339088908890612bb7565b60405180910390a460003360008686856040516020016118e7959493929190612bea565b6040516020818303038152906040529050610893858483611c93565b600083815260066020908152604080832085845290915290206119268282612c99565b5081837fa6e4251f855f750545fe414f120db91c76b88def14d120969e5bb2d3f05debbb8360405161195891906121dc565b60405180910390a3505050565b600083815260056020526040812061197d9087611e73565b9050806119c8576040517f4aa31a8c0000000000000000000000000000000000000000000000000000000081526001600160a01b0387166004820152602481018590526044016101c8565b83856001600160a01b0316876001600160a01b03167fc78cd419d6136f9f1c1c6aec1d3fae098cffaf8bc86314a8f2685e32fe574e3c8686604051611a0e929190612d59565b60405180910390a4505050505050565b604080517fffffffffffffffffffff00000000000000000000000000000000000000000000841660208201526000602a82018190526bffffffffffffffffffffffff198416602c83015291829101604051602081830303815290604052905080611a8790612d74565b949350505050565b60006001600160e01b031982167f629aa69400000000000000000000000000000000000000000000000000000000148061068857506301ffc9a760e01b6001600160e01b0319831614610688565b604080516001600160e01b03198316602480830191909152825180830390910181526044909101909152602080820180517bffffffffffffffffffffffffffffffffffffffffffffffffffffffff166301ffc9a760e01b178152825160009392849283928392918391908a617530fa92503d91506000519050828015611b64575060208210155b8015611b705750600081115b979650505050505050565b6001600160a01b038116600090815260018301602052604081205415156106e7565b6060816000018054806020026020016040519081016040528092919081815260200182805480156115fd57602002820191906000526020600020905b815481526020019060010190808311611bd95750505050509050919050565b600081815260056020526040812090611c1082611609565b90506000805b82811015610ceb57611c29846000611e88565b9150611c48828787600060405180602001604052806000815250611965565b600101611c16565b60006106e78383611e94565b60006106e78383611dd7565b610b5c827fb23eae7e6d1564b295b4c3e3be402d9a2f0776c57bdf365903496f6fa481ab0083611e26565b611ca483631aed5a8560e21b611add565b15611d3e57604051631aed5a8560e21b81526001600160a01b03841690636bb56a1490611cf7907f0b084a55ebf70fd3c06fd755269dac2212c4d3f0f4d09079780bfa50c1b2984d908590600401612d98565b6000604051808303816000875af1158015611d16573d6000803e3d6000fd5b505050506040513d6000823e601f3d908101601f19168201604052610e1d9190810190612db1565b81610de0576001600160a01b0383163b15611d90576040517f4349776d0000000000000000000000000000000000000000000000000000000081526001600160a01b03841660048201526024016101c8565b6040517f031731370000000000000000000000000000000000000000000000000000000081526001600160a01b03841660048201526024016101c8565b610b5c8282611f87565b6000818152600183016020526040812054611e1e57508154600181810184556000848152602080822090930184905584548482528286019093526040902091909155610688565b506000610688565b611e406001600160a01b038416631aed5a8560e21b611add565b15610de057604051631aed5a8560e21b81526001600160a01b03841690636bb56a1490611cf79085908590600401612d98565b60006106e7836001600160a01b038416611e94565b60006106e783836120e7565b60008181526001830160205260408120548015611f7d576000611eb8600183612e1f565b8554909150600090611ecc90600190612e1f565b9050818114611f31576000866000018281548110611eec57611eec612a99565b9060005260206000200154905080876000018481548110611f0f57611f0f612a99565b6000918252602080832090910192909255918252600188019052604090208390555b8554869080611f4257611f42612e32565b600190038181906000526020600020016000905590558560010160008681526020019081526020016000206000905560019350505050610688565b6000915050610688565b7f2145e1d6d074577dc71ef54c3807742b41b053a9352ae6b491331509acb9750f8201611fe0576040517f85c169bd00000000000000000000000000000000000000000000000000000000815260040160405180910390fd5b7fd0f59754f88971fe6bc5a6618cc9d5f1e859c58d16b22d1c7b2d3e2b246cd8aa8201612039576040517f76755b3800000000000000000000000000000000000000000000000000000000815260040160405180910390fd5b7f1fd9e056a24d14c4abc642fcc325992a946906d0dbc57dd70278aaf12842024d8201612092576040517f4ef6d7fb00000000000000000000000000000000000000000000000000000000815260040160405180910390fd5b60008281526001602052604090206120aa8282612c99565b50817fece574603820d07bc9b91f2a932baadf4628aabcb8afba49776529c14a6104b2826040516120db91906121dc565b60405180910390a25050565b60008260000182815481106120fe576120fe612a99565b9060005260206000200154905092915050565b60208152816020820152818360408301376000818301604090810191909152601f909201601f19160101919050565b60006020828403121561215257600080fd5b81356001600160e01b0319811681146106e757600080fd5b6000806040838503121561217d57600080fd5b50508035926020909101359150565b60005b838110156121a757818101518382015260200161218f565b50506000910152565b600081518084526121c881602086016020860161218c565b601f01601f19169290920160200192915050565b6020815260006106e760208301846121b0565b634e487b7160e01b600052604160045260246000fd5b604051601f8201601f1916810167ffffffffffffffff8111828210171561222e5761222e6121ef565b604052919050565b600067ffffffffffffffff821115612250576122506121ef565b5060051b60200190565b600082601f83011261226b57600080fd5b8135602061228061227b83612236565b612205565b82815260059290921b8401810191818101908684111561229f57600080fd5b8286015b848110156122ba57803583529183019183016122a3565b509695505050505050565b600080604083850312156122d857600080fd5b823567ffffffffffffffff808211156122f057600080fd5b6122fc8683870161225a565b9350602085013591508082111561231257600080fd5b5061231f8582860161225a565b9150509250929050565b6000602080830181845280855180835260408601915060408160051b870101925083870160005b8281101561237e57603f1988860301845261236c8583516121b0565b94509285019290850190600101612350565b5092979650505050505050565b60006020828403121561239d57600080fd5b5035919050565b80356001600160a01b03811681146123bb57600080fd5b919050565b600080604083850312156123d357600080fd5b6123dc836123a4565b946020939093013593505050565b6020808252825182820181905260009190848201906040850190845b8181101561242b5783516001600160a01b031683529284019291840191600101612406565b50909695505050505050565b803580151581146123bb57600080fd5b600067ffffffffffffffff821115612461576124616121ef565b50601f01601f191660200190565b600082601f83011261248057600080fd5b813561248e61227b82612447565b8181528460208386010111156124a357600080fd5b816020850160208301376000918101602001919091529392505050565b600080600080600060a086880312156124d857600080fd5b6124e1866123a4565b94506124ef602087016123a4565b93506040860135925061250460608701612437565b9150608086013567ffffffffffffffff81111561252057600080fd5b61252c8882890161246f565b9150509295509295909350565b6000806020838503121561254c57600080fd5b823567ffffffffffffffff8082111561256457600080fd5b818501915085601f83011261257857600080fd5b81358181111561258757600080fd5b8660208260051b850101111561259c57600080fd5b60209290920196919550909350505050565b6000602082840312156125c057600080fd5b6106e7826123a4565b600082601f8301126125da57600080fd5b813560206125ea61227b83612236565b82815260059290921b8401810191818101908684111561260957600080fd5b8286015b848110156122ba5761261e816123a4565b835291830191830161260d565b600082601f83011261263c57600080fd5b8135602061264c61227b83612236565b82815260059290921b8401810191818101908684111561266b57600080fd5b8286015b848110156122ba5761268081612437565b835291830191830161266f565b600082601f83011261269e57600080fd5b813560206126ae61227b83612236565b82815260059290921b840181019181810190868411156126cd57600080fd5b8286015b848110156122ba57803567ffffffffffffffff8111156126f15760008081fd5b6126ff8986838b010161246f565b8452509183019183016126d1565b600080600080600060a0868803121561272557600080fd5b853567ffffffffffffffff8082111561273d57600080fd5b61274989838a016125c9565b9650602088013591508082111561275f57600080fd5b61276b89838a016125c9565b9550604088013591508082111561278157600080fd5b61278d89838a0161225a565b945060608801359150808211156127a357600080fd5b6127af89838a0161262b565b935060808801359150808211156127c557600080fd5b5061252c8882890161268d565b600080604083850312156127e557600080fd5b82359150602083013567ffffffffffffffff81111561280357600080fd5b61231f8582860161246f565b60008060006060848603121561282457600080fd5b61282d846123a4565b925060208401359150604084013567ffffffffffffffff81111561285057600080fd5b61285c8682870161246f565b9150509250925092565b6000806040838503121561287957600080fd5b823567ffffffffffffffff8082111561289157600080fd5b61289d8683870161225a565b935060208501359150808211156128b357600080fd5b5061231f8582860161268d565b6020808252825182820181905260009190848201906040850190845b8181101561242b578351835292840192918401916001016128dc565b6000806000806080858703121561290e57600080fd5b612917856123a4565b93506020850135925061292c60408601612437565b9150606085013567ffffffffffffffff81111561294857600080fd5b6129548782880161246f565b91505092959194509250565b60008060006060848603121561297557600080fd5b833567ffffffffffffffff8082111561298d57600080fd5b6129998783880161225a565b945060208601359150808211156129af57600080fd5b6129bb8783880161225a565b935060408601359150808211156129d157600080fd5b5061285c8682870161268d565b6000806000606084860312156129f357600080fd5b8335925060208401359150604084013567ffffffffffffffff81111561285057600080fd5b600060208284031215612a2a57600080fd5b813567ffffffffffffffff811115612a4157600080fd5b611a878482850161225a565b8385823760609290921b6bffffffffffffffffffffffff1916919092019081526014810191909152603401919050565b60008251612a8f81846020870161218c565b9190910192915050565b634e487b7160e01b600052603260045260246000fd5b6000808335601e19843603018112612ac657600080fd5b83018035915067ffffffffffffffff821115612ae157600080fd5b602001915036819003821315612af657600080fd5b9250929050565b8183823760009101908152919050565b6001600160a01b03851681528360208201528215156040820152608060608201526000612b3d60808301846121b0565b9695505050505050565b805160208201516bffffffffffffffffffffffff198082169291906014831015612b7b5780818460140360031b1b83161693505b505050919050565b600181811c90821680612b9757607f821691505b6020821081036110b657634e487b7160e01b600052602260045260246000fd5b6001600160a01b03841681528215156020820152606060408201526000612be160608301846121b0565b95945050505050565b60006001600160a01b038088168352808716602084015280861660408401525083606083015260a06080830152611b7060a08301846121b0565b634e487b7160e01b600052601160045260246000fd5b600060018201612c4c57612c4c612c24565b5060010190565b601f821115610de057600081815260208120601f850160051c81016020861015612c7a5750805b601f850160051c820191505b81811015610ceb57828155600101612c86565b815167ffffffffffffffff811115612cb357612cb36121ef565b612cc781612cc18454612b83565b84612c53565b602080601f831160018114612cfc5760008415612ce45750858301515b600019600386901b1c1916600185901b178555610ceb565b600085815260208120601f198616915b82811015612d2b57888601518255948401946001909101908401612d0c565b5085821015612d495787850151600019600388901b60f8161c191681555b5050505050600190811b01905550565b8215158152604060208201526000611a8760408301846121b0565b805160208083015191908110156110b65760001960209190910360031b1b16919050565b828152604060208201526000611a8760408301846121b0565b600060208284031215612dc357600080fd5b815167ffffffffffffffff811115612dda57600080fd5b8201601f81018413612deb57600080fd5b8051612df961227b82612447565b818152856020838501011115612e0e57600080fd5b612be182602083016020860161218c565b8181038181111561068857610688612c24565b634e487b7160e01b600052603160045260246000fdfea2646970667358221220d84a782693e1e8bb1d1a57b2f6a8139255ec87607cae03195274a322a7260b4d64736f6c63430008130033",
  "linkReferences": {},
  "deployedLinkReferences": {}
}